{
  "contractName": "Game",
  "abi": [
    {
      "constant": true,
      "inputs": [],
      "name": "game_state_debug",
      "outputs": [
        {
          "name": "",
          "type": "uint256"
        }
      ],
      "payable": false,
      "stateMutability": "view",
      "type": "function"
    },
    {
      "constant": true,
      "inputs": [],
      "name": "num_last_winners",
      "outputs": [
        {
          "name": "",
          "type": "uint256"
        }
      ],
      "payable": false,
      "stateMutability": "view",
      "type": "function"
    },
    {
      "constant": true,
      "inputs": [],
      "name": "curr_number_reveals",
      "outputs": [
        {
          "name": "",
          "type": "uint256"
        }
      ],
      "payable": false,
      "stateMutability": "view",
      "type": "function"
    },
    {
      "constant": true,
      "inputs": [],
      "name": "BET_SIZE",
      "outputs": [
        {
          "name": "",
          "type": "uint256"
        }
      ],
      "payable": false,
      "stateMutability": "view",
      "type": "function"
    },
    {
      "constant": true,
      "inputs": [],
      "name": "curr_number_bets",
      "outputs": [
        {
          "name": "",
          "type": "uint256"
        }
      ],
      "payable": false,
      "stateMutability": "view",
      "type": "function"
    },
    {
      "constant": true,
      "inputs": [],
      "name": "MAX_PLAYERS",
      "outputs": [
        {
          "name": "",
          "type": "uint256"
        }
      ],
      "payable": false,
      "stateMutability": "view",
      "type": "function"
    },
    {
      "constant": true,
      "inputs": [
        {
          "name": "one",
          "type": "string"
        },
        {
          "name": "two",
          "type": "string"
        }
      ],
      "name": "getSha",
      "outputs": [
        {
          "name": "",
          "type": "bytes32"
        }
      ],
      "payable": false,
      "stateMutability": "view",
      "type": "function"
    },
    {
      "constant": true,
      "inputs": [],
      "name": "average23",
      "outputs": [
        {
          "name": "",
          "type": "uint256"
        }
      ],
      "payable": false,
      "stateMutability": "view",
      "type": "function"
    },
    {
      "constant": false,
      "inputs": [],
      "name": "renounceOwnership",
      "outputs": [],
      "payable": false,
      "stateMutability": "nonpayable",
      "type": "function"
    },
    {
      "constant": true,
      "inputs": [],
      "name": "MAX_GUESS",
      "outputs": [
        {
          "name": "",
          "type": "uint256"
        }
      ],
      "payable": false,
      "stateMutability": "view",
      "type": "function"
    },
    {
      "constant": true,
      "inputs": [
        {
          "name": "",
          "type": "address"
        }
      ],
      "name": "commits",
      "outputs": [
        {
          "name": "",
          "type": "bytes32"
        }
      ],
      "payable": false,
      "stateMutability": "view",
      "type": "function"
    },
    {
      "constant": true,
      "inputs": [],
      "name": "GAME_FEE_PERCENT",
      "outputs": [
        {
          "name": "",
          "type": "uint256"
        }
      ],
      "payable": false,
      "stateMutability": "view",
      "type": "function"
    },
    {
      "constant": true,
      "inputs": [],
      "name": "game_state",
      "outputs": [
        {
          "name": "",
          "type": "uint8"
        }
      ],
      "payable": false,
      "stateMutability": "view",
      "type": "function"
    },
    {
      "constant": true,
      "inputs": [
        {
          "name": "",
          "type": "uint256"
        }
      ],
      "name": "last_winners",
      "outputs": [
        {
          "name": "",
          "type": "address"
        }
      ],
      "payable": false,
      "stateMutability": "view",
      "type": "function"
    },
    {
      "constant": true,
      "inputs": [],
      "name": "owner",
      "outputs": [
        {
          "name": "",
          "type": "address"
        }
      ],
      "payable": false,
      "stateMutability": "view",
      "type": "function"
    },
    {
      "constant": true,
      "inputs": [
        {
          "name": "",
          "type": "address"
        }
      ],
      "name": "game_data",
      "outputs": [
        {
          "name": "",
          "type": "uint256"
        }
      ],
      "payable": false,
      "stateMutability": "view",
      "type": "function"
    },
    {
      "constant": true,
      "inputs": [],
      "name": "last_prize",
      "outputs": [
        {
          "name": "",
          "type": "uint256"
        }
      ],
      "payable": false,
      "stateMutability": "view",
      "type": "function"
    },
    {
      "constant": true,
      "inputs": [],
      "name": "final_commit_block",
      "outputs": [
        {
          "name": "",
          "type": "uint256"
        }
      ],
      "payable": false,
      "stateMutability": "view",
      "type": "function"
    },
    {
      "constant": false,
      "inputs": [
        {
          "name": "newOwner",
          "type": "address"
        }
      ],
      "name": "transferOwnership",
      "outputs": [],
      "payable": false,
      "stateMutability": "nonpayable",
      "type": "function"
    },
    {
      "constant": true,
      "inputs": [],
      "name": "MIN_GUESS",
      "outputs": [
        {
          "name": "",
          "type": "uint256"
        }
      ],
      "payable": false,
      "stateMutability": "view",
      "type": "function"
    },
    {
      "anonymous": false,
      "inputs": [
        {
          "indexed": false,
          "name": "hashed_commit",
          "type": "bytes32"
        }
      ],
      "name": "SuccesfulCommit",
      "type": "event"
    },
    {
      "anonymous": false,
      "inputs": [
        {
          "indexed": false,
          "name": "guess",
          "type": "string"
        },
        {
          "indexed": false,
          "name": "random",
          "type": "string"
        }
      ],
      "name": "SuccesfulReveal",
      "type": "event"
    },
    {
      "anonymous": false,
      "inputs": [
        {
          "indexed": false,
          "name": "addr",
          "type": "address"
        },
        {
          "indexed": false,
          "name": "n",
          "type": "uint256"
        }
      ],
      "name": "DebugWinner",
      "type": "event"
    },
    {
      "anonymous": false,
      "inputs": [
        {
          "indexed": false,
          "name": "last_win_l",
          "type": "uint256"
        },
        {
          "indexed": false,
          "name": "win_l",
          "type": "uint256"
        }
      ],
      "name": "DebugCommitState",
      "type": "event"
    },
    {
      "anonymous": false,
      "inputs": [
        {
          "indexed": true,
          "name": "previousOwner",
          "type": "address"
        }
      ],
      "name": "OwnershipRenounced",
      "type": "event"
    },
    {
      "anonymous": false,
      "inputs": [
        {
          "indexed": true,
          "name": "previousOwner",
          "type": "address"
        },
        {
          "indexed": true,
          "name": "newOwner",
          "type": "address"
        }
      ],
      "name": "OwnershipTransferred",
      "type": "event"
    },
    {
      "constant": false,
      "inputs": [
        {
          "name": "new_val",
          "type": "uint256"
        }
      ],
      "name": "set_MAX_PLAYERS",
      "outputs": [],
      "payable": false,
      "stateMutability": "nonpayable",
      "type": "function"
    },
    {
      "constant": false,
      "inputs": [],
      "name": "trigger_payout",
      "outputs": [],
      "payable": false,
      "stateMutability": "nonpayable",
      "type": "function"
    },
    {
      "constant": false,
      "inputs": [
        {
          "name": "hashed_com",
          "type": "bytes32"
        }
      ],
      "name": "commit",
      "outputs": [],
      "payable": true,
      "stateMutability": "payable",
      "type": "function"
    },
    {
      "constant": false,
      "inputs": [
        {
          "name": "guess",
          "type": "string"
        },
        {
          "name": "random",
          "type": "string"
        }
      ],
      "name": "reveal",
      "outputs": [],
      "payable": false,
      "stateMutability": "nonpayable",
      "type": "function"
    }
  ],
  "bytecode": "0x608060405260008060146101000a81548160ff0219169083600181111561002257fe5b02179055506000600155600060065560006007556000600855732540099e9ed04af369d557a40da2d8f9c2ab928d600960006101000a81548173ffffffffffffffffffffffffffffffffffffffff021916908373ffffffffffffffffffffffffffffffffffffffff160217905550670de0b6b3a7640000600a55600a600b556000600d556000600e556000600f55336000806101000a81548173ffffffffffffffffffffffffffffffffffffffff021916908373ffffffffffffffffffffffffffffffffffffffff160217905550611969806100ff6000396000f30060806040526004361061013e576000357c0100000000000000000000000000000000000000000000000000000000900463ffffffff16806301f9f91a146101435780630dc0961b1461016e5780632e7fc3961461019b5780633320d945146101c65780633ebb38c7146101f15780634332356e1461021c5780634411b3eb146102475780635401e2c9146102725780635ba1b2c71461033d5780636fdac361146103ec578063715018a614610417578063799561c81461042e5780637b43a8e61461045957806383603a2d146104b85780638ae43b54146104e35780638ce0f8fc1461051c5780638da5cb5b14610589578063961f1584146105e0578063ce66037314610637578063d5b05ae51461064e578063f078b4dc14610679578063f14fcbc8146106a4578063f2fde38b146106c8578063fa4f01a21461070b575b600080fd5b34801561014f57600080fd5b50610158610736565b6040518082815260200191505060405180910390f35b34801561017a57600080fd5b506101996004803603810190808035906020019092919050505061073c565b005b3480156101a757600080fd5b506101b06107a1565b6040518082815260200191505060405180910390f35b3480156101d257600080fd5b506101db6107a7565b6040518082815260200191505060405180910390f35b3480156101fd57600080fd5b506102066107ad565b6040518082815260200191505060405180910390f35b34801561022857600080fd5b506102316107b3565b6040518082815260200191505060405180910390f35b34801561025357600080fd5b5061025c6107b9565b6040518082815260200191505060405180910390f35b34801561027e57600080fd5b5061031f600480360381019080803590602001908201803590602001908080601f0160208091040260200160405190810160405280939291908181526020018383808284378201915050505050509192919290803590602001908201803590602001908080601f01602080910402602001604051908101604052809392919081815260200183838082843782019150505050505091929192905050506107bf565b60405180826000191660001916815260200191505060405180910390f35b34801561034957600080fd5b506103ea600480360381019080803590602001908201803590602001908080601f0160208091040260200160405190810160405280939291908181526020018383808284378201915050505050509192919290803590602001908201803590602001908080601f0160208091040260200160405190810160405280939291908181526020018383808284378201915050505050509192919290505050610881565b005b3480156103f857600080fd5b50610401610bc9565b6040518082815260200191505060405180910390f35b34801561042357600080fd5b5061042c610bcf565b005b34801561043a57600080fd5b50610443610cd1565b6040518082815260200191505060405180910390f35b34801561046557600080fd5b5061049a600480360381019080803573ffffffffffffffffffffffffffffffffffffffff169060200190929190505050610cd6565b60405180826000191660001916815260200191505060405180910390f35b3480156104c457600080fd5b506104cd610cee565b6040518082815260200191505060405180910390f35b3480156104ef57600080fd5b506104f8610cf3565b6040518082600181111561050857fe5b60ff16815260200191505060405180910390f35b34801561052857600080fd5b5061054760048036038101908080359060200190929190505050610d06565b604051808273ffffffffffffffffffffffffffffffffffffffff1673ffffffffffffffffffffffffffffffffffffffff16815260200191505060405180910390f35b34801561059557600080fd5b5061059e610d44565b604051808273ffffffffffffffffffffffffffffffffffffffff1673ffffffffffffffffffffffffffffffffffffffff16815260200191505060405180910390f35b3480156105ec57600080fd5b50610621600480360381019080803573ffffffffffffffffffffffffffffffffffffffff169060200190929190505050610d69565b6040518082815260200191505060405180910390f35b34801561064357600080fd5b5061064c610d81565b005b34801561065a57600080fd5b50610663610e27565b6040518082815260200191505060405180910390f35b34801561068557600080fd5b5061068e610e2d565b6040518082815260200191505060405180910390f35b6106c66004803603810190808035600019169060200190929190505050610e33565b005b3480156106d457600080fd5b50610709600480360381019080803573ffffffffffffffffffffffffffffffffffffffff169060200190929190505050610f28565b005b34801561071757600080fd5b5061072061107d565b6040518082815260200191505060405180910390f35b60015481565b6000809054906101000a900473ffffffffffffffffffffffffffffffffffffffff1673ffffffffffffffffffffffffffffffffffffffff163373ffffffffffffffffffffffffffffffffffffffff1614151561079757600080fd5b80600b8190555050565b600d5481565b60075481565b600a5481565b60065481565b600b5481565b600082826040518083805190602001908083835b6020831015156107f857805182526020820191506020810190506020830392506107d3565b6001836020036101000a03801982511681845116808217855250505050505090500182805190602001908083835b60208310151561084b5780518252602082019150602081019050602083039250610826565b6001836020036101000a038019825116818451168082178552505050505050905001925050506040518091039020905092915050565b600060018081111561088f57fe5b600060149054906101000a900460ff1660018111156108aa57fe5b1415156108b657600080fd5b6108bf83611082565b9050600081101580156108d3575060648111155b15156108de57600080fd5b82826040518083805190602001908083835b60208310151561091557805182526020820191506020810190506020830392506108f0565b6001836020036101000a03801982511681845116808217855250505050505090500182805190602001908083835b6020831015156109685780518252602082019150602081019050602083039250610943565b6001836020036101000a03801982511681845116808217855250505050505090500192505050604051809103902060001916600260003373ffffffffffffffffffffffffffffffffffffffff1673ffffffffffffffffffffffffffffffffffffffff16815260200190815260200160002054600019161415156109ea57600080fd5b80600360003373ffffffffffffffffffffffffffffffffffffffff1673ffffffffffffffffffffffffffffffffffffffff1681526020019081526020016000208190555060043390806001815401808255809150509060018203906000526020600020016000909192909190916101000a81548173ffffffffffffffffffffffffffffffffffffffff021916908373ffffffffffffffffffffffffffffffffffffffff160217905550506007600081548092919060010191905055507fc0db0a1766e2590671d51abeec66743c4f0a46067b04df5641143e4b25a533458383604051808060200180602001838103835285818151815260200191508051906020019080838360005b83811015610b0d578082015181840152602081019050610af2565b50505050905090810190601f168015610b3a5780820380516001836020036101000a031916815260200191505b50838103825284818151815260200191508051906020019080838360005b83811015610b73578082015181840152602081019050610b58565b50505050905090810190601f168015610ba05780820380516001836020036101000a031916815260200191505b5094505050505060405180910390a1600b546007541415610bc457610bc361128c565b5b505050565b600f5481565b6000809054906101000a900473ffffffffffffffffffffffffffffffffffffffff1673ffffffffffffffffffffffffffffffffffffffff163373ffffffffffffffffffffffffffffffffffffffff16141515610c2a57600080fd5b6000809054906101000a900473ffffffffffffffffffffffffffffffffffffffff1673ffffffffffffffffffffffffffffffffffffffff167ff8df31144d9c2f0f6b59d69b8b98abd5459d07f2742c4df920b25aae33c6482060405160405180910390a260008060006101000a81548173ffffffffffffffffffffffffffffffffffffffff021916908373ffffffffffffffffffffffffffffffffffffffff160217905550565b606481565b60026020528060005260406000206000915090505481565b600581565b600060149054906101000a900460ff1681565b600c81815481101515610d1557fe5b906000526020600020016000915054906101000a900473ffffffffffffffffffffffffffffffffffffffff1681565b6000809054906101000a900473ffffffffffffffffffffffffffffffffffffffff1681565b60036020528060005260406000206000915090505481565b6000809054906101000a900473ffffffffffffffffffffffffffffffffffffffff1673ffffffffffffffffffffffffffffffffffffffff163373ffffffffffffffffffffffffffffffffffffffff16141515610ddc57600080fd5b600180811115610de857fe5b600060149054906101000a900460ff166001811115610e0357fe5b141515610e0f57600080fd5b600560085401431115610e2557610e2461128c565b5b565b600e5481565b60085481565b60006001811115610e4057fe5b600060149054906101000a900460ff166001811115610e5b57fe5b141515610e6757600080fd5b600a5434141515610e7757600080fd5b80600260003373ffffffffffffffffffffffffffffffffffffffff1673ffffffffffffffffffffffffffffffffffffffff16815260200190815260200160002081600019169055506006600081548092919060010191905055507f9c4016ea3e10e12dffdc2daa87c27677104d34e8a791a40b0e0f8d95b3c8d8818160405180826000191660001916815260200191505060405180910390a1600b546006541415610f2557610f2461175a565b5b50565b6000809054906101000a900473ffffffffffffffffffffffffffffffffffffffff1673ffffffffffffffffffffffffffffffffffffffff163373ffffffffffffffffffffffffffffffffffffffff16141515610f8357600080fd5b600073ffffffffffffffffffffffffffffffffffffffff168173ffffffffffffffffffffffffffffffffffffffff1614151515610fbf57600080fd5b8073ffffffffffffffffffffffffffffffffffffffff166000809054906101000a900473ffffffffffffffffffffffffffffffffffffffff1673ffffffffffffffffffffffffffffffffffffffff167f8be0079c531659141344cd1fd0a4f28419497f9722a3daafe3b4186f6b6457e060405160405180910390a3806000806101000a81548173ffffffffffffffffffffffffffffffffffffffff021916908373ffffffffffffffffffffffffffffffffffffffff16021790555050565b600081565b6000606060008084925060009150600090505b82518110156112815760307f01000000000000000000000000000000000000000000000000000000000000000283828151811015156110d057fe5b9060200101517f010000000000000000000000000000000000000000000000000000000000000090047f0100000000000000000000000000000000000000000000000000000000000000027effffffffffffffffffffffffffffffffffffffffffffffffffffffffffffff1916101580156111e8575060397f010000000000000000000000000000000000000000000000000000000000000002838281518110151561117857fe5b9060200101517f010000000000000000000000000000000000000000000000000000000000000090047f0100000000000000000000000000000000000000000000000000000000000000027effffffffffffffffffffffffffffffffffffffffffffffffffffffffffffff191611155b1561127457603083828151811015156111fd57fe5b9060200101517f010000000000000000000000000000000000000000000000000000000000000090047f0100000000000000000000000000000000000000000000000000000000000000027f0100000000000000000000000000000000000000000000000000000000000000900403600a83020191505b8080600101915050611095565b819350505050919050565b6000806000806000806000806000807fece34cfb64cf1d40c8a91ac1e5395fb2f1586a6d85d750495dd23dd2b22a596d6005600480549050604051808373ffffffffffffffffffffffffffffffffffffffff1681526020018281526020019250505060405180910390a160009950600098505b600480549050891015611399576003600060048b81548110151561131f57fe5b9060005260206000200160009054906101000a900473ffffffffffffffffffffffffffffffffffffffff1673ffffffffffffffffffffffffffffffffffffffff1673ffffffffffffffffffffffffffffffffffffffff168152602001908152602001600020549750878a01995088806001019950506112ff565b6113a88a60048054905061178e565b96506113bf6113b88860026117a4565b600361178e565b955085600f8190555060649450600098505b6004805490508910156115e4576003600060048b8154811015156113f157fe5b9060005260206000200160009054906101000a900473ffffffffffffffffffffffffffffffffffffffff1673ffffffffffffffffffffffffffffffffffffffff1673ffffffffffffffffffffffffffffffffffffffff1681526020019081526020016000205492508286111561146b578286039350611471565b85830393505b8484101561152e57600560006114879190611862565b600560048a81548110151561149857fe5b9060005260206000200160009054906101000a900473ffffffffffffffffffffffffffffffffffffffff1690806001815401808255809150509060018203906000526020600020016000909192909190916101000a81548173ffffffffffffffffffffffffffffffffffffffff021916908373ffffffffffffffffffffffffffffffffffffffff160217905550508394506115d7565b848414156115d657600560048a81548110151561154757fe5b9060005260206000200160009054906101000a900473ffffffffffffffffffffffffffffffffffffffff1690806001815401808255809150509060018203906000526020600020016000909192909190916101000a81548173ffffffffffffffffffffffffffffffffffffffff021916908373ffffffffffffffffffffffffffffffffffffffff160217905550505b5b88806001019950506113d1565b600560643073ffffffffffffffffffffffffffffffffffffffff163181151561160957fe5b04029150600960009054906101000a900473ffffffffffffffffffffffffffffffffffffffff1673ffffffffffffffffffffffffffffffffffffffff166108fc839081150290604051600060405180830381858888f19350505050158015611675573d6000803e3d6000fd5b506005805490503073ffffffffffffffffffffffffffffffffffffffff163181151561169d57fe5b049050600098505b60058054905089101561173f576005898154811015156116c157fe5b9060005260206000200160009054906101000a900473ffffffffffffffffffffffffffffffffffffffff1673ffffffffffffffffffffffffffffffffffffffff166108fc829081150290604051600060405180830381858888f19350505050158015611731573d6000803e3d6000fd5b5088806001019950506116a5565b80600e8190555061174e6117dc565b50505050505050505050565b6001600060146101000a81548160ff0219169083600181111561177957fe5b02179055506001808190555043600881905550565b6000818381151561179b57fe5b04905092915050565b6000808314156117b757600090506117d6565b81830290508183828115156117c857fe5b041415156117d257fe5b8090505b92915050565b6000600181905550600460006117f29190611862565b600c60006118009190611862565b6005600c908054611812929190611883565b50600580549050600d819055506005600061182d9190611862565b6000600681905550600060078190555060008060146101000a81548160ff0219169083600181111561185b57fe5b0217905550565b508054600082559060005260206000209081019061188091906118d5565b50565b8280548282559060005260206000209081019282156118c45760005260206000209182015b828111156118c35782548255916001019190600101906118a8565b5b5090506118d191906118fa565b5090565b6118f791905b808211156118f35760008160009055506001016118db565b5090565b90565b61193a91905b8082111561193657600081816101000a81549073ffffffffffffffffffffffffffffffffffffffff021916905550600101611900565b5090565b905600a165627a7a723058205de3194ebe72c21470d0e6ccc85380f0da4d22cc613b9c626cd2d6e60542a2f10029",
  "source": "pragma solidity ^0.4.23;\n\n\n\n/*\n!!!!!!!!!!! KNOWN BUGS !!!!!!!!!!!!!!!\n1) 2/3 average consistent with the js results. BUT. The way we calculate it\nin solidity seems to be rounded down at the taking of the average step, and then\nagain rounded down after division by 3. It is better to fix this because this skews\nthe average ever so slightly south. \n2) Protect against repeated reveal call\n\n!!!!!!!!!!!! POTENTIAL BUGS !!!!!!!!!!!!!!!!\n1) Ether being brought over to the next round due to rounding issues. \nCheck that this is not the case. \n\n!!!!!!!!!! LOGICAL IMPROVEMENTS !!!!!!!!!!!!\n1) Send money to HOME address only once the fees reach a certain amount.\n\n*/\n\nimport \"./Ownable.sol\";\nimport \"./GameHelper.sol\";\n\ncontract Game is Ownable, GameHelper {\n\n    // Tracks the state of the game. \n    enum GameState {COMMIT_STATE, REVEAL_STATE}\n    GameState public game_state = GameState.COMMIT_STATE;\n    //DEBUG: Enums cannot be tested. Value mirrors the enum\n    uint public game_state_debug = 0;\n\n    // Commit/Reveal Protocol vars\n    mapping (address => bytes32) public commits;\n    mapping (address => uint) public game_data;\n    address[] internal player_addrs;\n    address[] internal winners;\n    uint public curr_number_bets = 0;\n    uint public curr_number_reveals = 0;\n    uint public final_commit_block = 0;\n    uint constant REVEAL_PERIOD = 5;\n    \n    // Money Specifics\n    address OUR_ADDRESS = 0x2540099e9ed04aF369d557a40da2D8f9c2ab928D; //Address \n    uint public constant GAME_FEE_PERCENT = 5;\n    uint public BET_SIZE = 1 ether; \n    \n    // Rules\n    uint public MAX_PLAYERS = 10;\n    uint public constant MIN_GUESS = 0;\n    uint public constant MAX_GUESS = 100;\n\n    // UI vars\n    address[] public last_winners;\n    uint public num_last_winners = 0;\n    uint public last_prize = 0;\n\n\n    ////// DEBUG vars and debug functions\n    uint public average23 = 0;\n\n    function set_MAX_PLAYERS(uint new_val) public onlyOwner {\n        MAX_PLAYERS = new_val;\n    }\n\n    // function is used to trigger a payout in a situation where somone\n    // forgets to send the reveal.\n    function trigger_payout() public onlyOwner {\n        require(game_state == GameState.REVEAL_STATE);\n\n        // If the REVEAL_PERIOD blocks has gone by, while unfair, \n        // keep the money of nonrevealers, play the game with the\n        // rest of the players.\n        if(block.number > final_commit_block + REVEAL_PERIOD){\n            find_winner();\n        }\n\n    }\n\n    ////\n\n    // constructor(uint num_players, uint bet_size) public {\n    //     MAX_PLAYERS = num_players;\n    //     BET_SIZE = bet_size;\n    //    // OUR_ADDRESS = fee_addr;\n    //     owner = msg.sender;\n    // }\n\n    // Commit your guess. \n    event SuccesfulCommit(\n        bytes32 hashed_commit\n    );\n\n    function commit(bytes32 hashed_com) public payable{\n        require(game_state == GameState.COMMIT_STATE);\n        require(msg.value == BET_SIZE);\n\n        commits[msg.sender] = hashed_com;\n        curr_number_bets++;\n\n        // Notify the user that their bet reached us\n        emit SuccesfulCommit(hashed_com);\n\n        // If we received the MAX_PLAYER number of commits, it is time for\n        // us to change state.\n        if (curr_number_bets == MAX_PLAYERS) {\n            toRevealState();\n        }\n    }\n\n    event SuccesfulReveal(\n        string guess,\n        string random\n    );\n    function reveal(string guess, string random) public  {\n        \n        require(game_state == GameState.REVEAL_STATE);\n        \n        // DEBUG: Need to make sure it throws if the guess is not integer\n        uint guess_num = stringToUint(guess);\n        \n        require(guess_num >= MIN_GUESS && guess_num <= MAX_GUESS);\n\n        // Check that the hashes match\n        require(commits[msg.sender] == keccak256(guess, random));\n\n        // When they do, we add the revealed guess to game data\n        game_data[msg.sender] = guess_num;\n        player_addrs.push(msg.sender);\n        curr_number_reveals++;\n\n        emit SuccesfulReveal(guess, random);\n\n        if(curr_number_reveals == MAX_PLAYERS){\n            find_winner();\n        }\n    }\n\n    event DebugWinner(address addr, uint n);\n\n\n    function find_winner() private {\n\n        emit DebugWinner(5, player_addrs.length);\n        \n        // Calculate the 2/3 average\n        uint guess_sum = 0;\n        for(uint i = 0; i < player_addrs.length; i++){\n            uint tmp = game_data[player_addrs[i]];\n            guess_sum += tmp;\n        }\n        uint average = div(guess_sum, player_addrs.length);\n        uint twothirdsavg = div(mul(average, 2), 3);\n\n        //DEBUG\n        average23 = twothirdsavg;\n\n\n        // Find the guessers who are the closest to the 2/3 average\n        uint min_diff = MAX_GUESS;\n        uint cur_diff;\n        for(i = 0; i < player_addrs.length; i++) {\n            \n            uint cur_guess = game_data[player_addrs[i]];\n\n            // Find the difference between the guess and the average\n            if(twothirdsavg > cur_guess){\n                cur_diff = twothirdsavg - cur_guess;\n            }\n            else{\n                cur_diff = cur_guess - twothirdsavg;\n            }\n            \n            // If the difference is less than the smallest difference,\n            // we delete all the winners and add the new candidate\n            if(cur_diff < min_diff) {\n                delete winners;\n                winners.push(player_addrs[i]);\n\n                min_diff = cur_diff;\n            // Else, if the difference are the same, we add the candidate to the \n            // list of winners\n            } else if(cur_diff == min_diff){\n                winners.push(player_addrs[i]);\n            }\n        }\n\n        // Lets pay ourselves some money\n        uint gamefee = (address(this).balance/100) * GAME_FEE_PERCENT;\n        OUR_ADDRESS.transfer(gamefee);\n\n        // Split the rest equally among winners\n        uint prize = address(this).balance/winners.length;\n        for(i = 0; i < winners.length; i++){\n            winners[i].transfer(prize); \n            //emit DebugWinner(winners[i], winners.length);\n        }\n        last_prize = prize;\n\n        // DEBUG: Make sure no ether is lost due to rounding. \n\n        // RESET STATE\n        toCommitState();\n    }\n\n    // Call this funtion to get to COMMIT_STATE\n    event DebugCommitState(uint last_win_l, uint win_l);\n\n    function toCommitState() internal {\n        game_state_debug = 0;\n\n        delete player_addrs;\n        delete last_winners;\n        last_winners = winners;\n        num_last_winners = winners.length;\n        delete winners;\n        curr_number_bets = 0;\n        curr_number_reveals = 0;\n\n        game_state = GameState.COMMIT_STATE;\n        //DebugCommitState(num_last_winners, winners.length);\n    }\n\n    // Call this function to get to REVEAL_STATE\n    function toRevealState() internal {\n        game_state = GameState.REVEAL_STATE;\n        game_state_debug = 1;\n        final_commit_block = block.number;\n    }\n\n}",
  "sourcePath": "/Users/freeslugs/Documents/Code/nashhash/contracts/Game.sol",
  "compiler": {
    "name": "solc",
    "version": "0.4.23+commit.124ca40d.Emscripten.clang"
  },
  "schemaVersion": "2.0.0",
  "updatedAt": "2018-05-13T15:47:05.757Z"
}