{
  "contractName": "GameHelper",
  "abi": [
    {
      "constant": true,
      "inputs": [
        {
          "name": "one",
          "type": "string"
        },
        {
          "name": "two",
          "type": "string"
        }
      ],
      "name": "getSha",
      "outputs": [
        {
          "name": "",
          "type": "bytes32"
        }
      ],
      "payable": false,
      "stateMutability": "view",
      "type": "function"
    }
  ],
  "bytecode": "0x608060405234801561001057600080fd5b506101ff806100206000396000f300608060405260043610610041576000357c0100000000000000000000000000000000000000000000000000000000900463ffffffff1680635401e2c914610046575b600080fd5b34801561005257600080fd5b506100f3600480360381019080803590602001908201803590602001908080601f0160208091040260200160405190810160405280939291908181526020018383808284378201915050505050509192919290803590602001908201803590602001908080601f0160208091040260200160405190810160405280939291908181526020018383808284378201915050505050509192919290505050610111565b60405180826000191660001916815260200191505060405180910390f35b600082826040518083805190602001908083835b60208310151561014a5780518252602082019150602081019050602083039250610125565b6001836020036101000a03801982511681845116808217855250505050505090500182805190602001908083835b60208310151561019d5780518252602082019150602081019050602083039250610178565b6001836020036101000a0380198251168184511680821785525050505050509050019250505060405180910390209050929150505600a165627a7a72305820ae27022dce0cec346a9d38b5a203ddf5bc0fb21b4488e22aa2208812ca6af0200029",
  "source": "pragma solidity ^0.4.23;\n\n\n/**\n * @title SafeMath\n * @dev Math operations with safety checks that throw on error\n */\ncontract GameHelper {\n\n  /**\n  * @dev Multiplies two numbers, throws on overflow.\n  */\n    function mul(uint256 a, uint256 b) internal pure returns (uint256 c) {\n        if (a == 0) {\n            return 0;\n        }\n        c = a * b;\n        assert(c / a == b);\n        return c;\n    }\n\n    /**\n    * @dev Integer division of two numbers, truncating the quotient.\n    */\n    function div(uint256 a, uint256 b) internal pure returns (uint256) {\n        // assert(b > 0); // Solidity automatically throws when dividing by 0\n        // uint256 c = a / b;\n        // assert(a == b * c + a % b); // There is no case in which this doesn't hold\n        return a / b;\n    }\n\n    /**\n    * @dev Subtracts two numbers, throws on overflow (i.e. if subtrahend is greater than minuend).\n    */\n    function sub(uint256 a, uint256 b) internal pure returns (uint256) {\n        assert(b <= a);\n        return a - b;\n    }\n\n    /**\n    * @dev Adds two numbers, throws on overflow.\n    */\n    function add(uint256 a, uint256 b) internal pure returns (uint256 c) {\n        c = a + b;\n        assert(c >= a);\n        return c;\n    }\n\n    function getSha(string one, string two) public view returns(bytes32) {\n        return keccak256(one, two);\n    }\n\n    // Move to helper\n    function bytes32ToString (bytes32 data) internal returns (string) {\n        bytes memory bytesString = new bytes(32);\n        for (uint j = 0; j < 32 ;j++) {\n            byte char = byte(bytes32(uint(data) * 2 ** (8 * j)));\n            if (char != 0) {\n                bytesString[j] = char;\n            }\n        }\n        return string(bytesString);\n    }\n\n    function stringToUint(string s) constant internal returns (uint) {\n        bytes memory b = bytes(s);\n        uint result = 0;\n        for (uint i = 0; i < b.length; i++) { // c = b[i] was not needed\n            if (b[i] >= 48 && b[i] <= 57) {\n                result = result * 10 + (uint(b[i]) - 48); // bytes and int are not compatible with the operator -.\n            }\n        }\n        return result; // this was missing\n    }\n}",
  "sourcePath": "/Users/freeslugs/Documents/Code/nashhash/contracts/GameHelper.sol",
  "compiler": {
    "name": "solc",
    "version": "0.4.23+commit.124ca40d.Emscripten.clang"
  },
  "schemaVersion": "2.0.0",
  "updatedAt": "2018-05-13T15:43:55.675Z"
}