{
  "contractName": "Game",
  "abi": [
    {
      "constant": true,
      "inputs": [],
      "name": "game_state_debug",
      "outputs": [
        {
          "name": "",
          "type": "uint256"
        }
      ],
      "payable": false,
      "stateMutability": "view",
      "type": "function"
    },
    {
      "constant": true,
      "inputs": [],
      "name": "curr_number_reveals",
      "outputs": [
        {
          "name": "",
          "type": "uint256"
        }
      ],
      "payable": false,
      "stateMutability": "view",
      "type": "function"
    },
    {
      "constant": true,
      "inputs": [],
      "name": "BET_SIZE",
      "outputs": [
        {
          "name": "",
          "type": "uint256"
        }
      ],
      "payable": false,
      "stateMutability": "view",
      "type": "function"
    },
    {
      "constant": true,
      "inputs": [],
      "name": "curr_number_bets",
      "outputs": [
        {
          "name": "",
          "type": "uint256"
        }
      ],
      "payable": false,
      "stateMutability": "view",
      "type": "function"
    },
    {
      "constant": true,
      "inputs": [],
      "name": "MAX_PLAYERS",
      "outputs": [
        {
          "name": "",
          "type": "uint256"
        }
      ],
      "payable": false,
      "stateMutability": "view",
      "type": "function"
    },
    {
      "constant": false,
      "inputs": [],
      "name": "renounceOwnership",
      "outputs": [],
      "payable": false,
      "stateMutability": "nonpayable",
      "type": "function"
    },
    {
      "constant": true,
      "inputs": [
        {
          "name": "",
          "type": "uint256"
        }
      ],
      "name": "player_addrs",
      "outputs": [
        {
          "name": "",
          "type": "address"
        }
      ],
      "payable": false,
      "stateMutability": "view",
      "type": "function"
    },
    {
      "constant": true,
      "inputs": [],
      "name": "MAX_GUESS",
      "outputs": [
        {
          "name": "",
          "type": "uint256"
        }
      ],
      "payable": false,
      "stateMutability": "view",
      "type": "function"
    },
    {
      "constant": true,
      "inputs": [
        {
          "name": "",
          "type": "address"
        }
      ],
      "name": "commits",
      "outputs": [
        {
          "name": "",
          "type": "bytes32"
        }
      ],
      "payable": false,
      "stateMutability": "view",
      "type": "function"
    },
    {
      "constant": true,
      "inputs": [],
      "name": "GAME_FEE_PERCENT",
      "outputs": [
        {
          "name": "",
          "type": "uint256"
        }
      ],
      "payable": false,
      "stateMutability": "view",
      "type": "function"
    },
    {
      "constant": true,
      "inputs": [],
      "name": "game_state",
      "outputs": [
        {
          "name": "",
          "type": "uint8"
        }
      ],
      "payable": false,
      "stateMutability": "view",
      "type": "function"
    },
    {
      "constant": true,
      "inputs": [],
      "name": "owner",
      "outputs": [
        {
          "name": "",
          "type": "address"
        }
      ],
      "payable": false,
      "stateMutability": "view",
      "type": "function"
    },
    {
      "constant": true,
      "inputs": [
        {
          "name": "",
          "type": "address"
        }
      ],
      "name": "game_data",
      "outputs": [
        {
          "name": "",
          "type": "uint256"
        }
      ],
      "payable": false,
      "stateMutability": "view",
      "type": "function"
    },
    {
      "constant": true,
      "inputs": [
        {
          "name": "",
          "type": "uint256"
        }
      ],
      "name": "winners",
      "outputs": [
        {
          "name": "",
          "type": "address"
        }
      ],
      "payable": false,
      "stateMutability": "view",
      "type": "function"
    },
    {
      "constant": false,
      "inputs": [
        {
          "name": "newOwner",
          "type": "address"
        }
      ],
      "name": "transferOwnership",
      "outputs": [],
      "payable": false,
      "stateMutability": "nonpayable",
      "type": "function"
    },
    {
      "constant": true,
      "inputs": [],
      "name": "MIN_GUESS",
      "outputs": [
        {
          "name": "",
          "type": "uint256"
        }
      ],
      "payable": false,
      "stateMutability": "view",
      "type": "function"
    },
    {
      "anonymous": false,
      "inputs": [
        {
          "indexed": true,
          "name": "previousOwner",
          "type": "address"
        }
      ],
      "name": "OwnershipRenounced",
      "type": "event"
    },
    {
      "anonymous": false,
      "inputs": [
        {
          "indexed": true,
          "name": "previousOwner",
          "type": "address"
        },
        {
          "indexed": true,
          "name": "newOwner",
          "type": "address"
        }
      ],
      "name": "OwnershipTransferred",
      "type": "event"
    },
    {
      "constant": false,
      "inputs": [
        {
          "name": "new_val",
          "type": "uint256"
        }
      ],
      "name": "set_MAX_PLAYERS",
      "outputs": [],
      "payable": false,
      "stateMutability": "nonpayable",
      "type": "function"
    },
    {
      "constant": false,
      "inputs": [
        {
          "name": "hashed_com",
          "type": "bytes32"
        }
      ],
      "name": "commit",
      "outputs": [],
      "payable": true,
      "stateMutability": "payable",
      "type": "function"
    },
    {
      "constant": true,
      "inputs": [
        {
          "name": "one",
          "type": "string"
        },
        {
          "name": "two",
          "type": "string"
        }
      ],
      "name": "getSha",
      "outputs": [
        {
          "name": "",
          "type": "bytes32"
        }
      ],
      "payable": false,
      "stateMutability": "view",
      "type": "function"
    },
    {
      "constant": false,
      "inputs": [
        {
          "name": "guess",
          "type": "string"
        },
        {
          "name": "random",
          "type": "string"
        }
      ],
      "name": "reveal",
      "outputs": [],
      "payable": false,
      "stateMutability": "nonpayable",
      "type": "function"
    },
    {
      "constant": false,
      "inputs": [],
      "name": "find_winner",
      "outputs": [],
      "payable": false,
      "stateMutability": "nonpayable",
      "type": "function"
    }
  ],
  "bytecode": "0x608060405260008060146101000a81548160ff0219169083600181111561002257fe5b02179055506000600155732540099e9ed04af369d557a40da2d8f9c2ab928d600660006101000a81548173ffffffffffffffffffffffffffffffffffffffff021916908373ffffffffffffffffffffffffffffffffffffffff1602179055506001600755600160085560006009556000600a55336000806101000a81548173ffffffffffffffffffffffffffffffffffffffff021916908373ffffffffffffffffffffffffffffffffffffffff16021790555061154c806100e46000396000f30060806040526004361061011d576000357c0100000000000000000000000000000000000000000000000000000000900463ffffffff16806301f9f91a146101225780630dc0961b1461014d5780633320d9451461017a5780633ebb38c7146101a55780634332356e146101d05780634411b3eb146101fb5780635401e2c9146102265780635ba1b2c7146102f1578063715018a6146103a05780637991a012146103b7578063799561c8146104245780637b43a8e61461044f57806383603a2d146104ae5780638ae43b54146104d95780638da5cb5b146105125780638ef5a5bf14610569578063961f158414610580578063a2fb1175146105d7578063f14fcbc814610644578063f2fde38b14610668578063fa4f01a2146106ab575b600080fd5b34801561012e57600080fd5b506101376106d6565b6040518082815260200191505060405180910390f35b34801561015957600080fd5b50610178600480360381019080803590602001909291905050506106dc565b005b34801561018657600080fd5b5061018f610741565b6040518082815260200191505060405180910390f35b3480156101b157600080fd5b506101ba610747565b6040518082815260200191505060405180910390f35b3480156101dc57600080fd5b506101e561074d565b6040518082815260200191505060405180910390f35b34801561020757600080fd5b50610210610753565b6040518082815260200191505060405180910390f35b34801561023257600080fd5b506102d3600480360381019080803590602001908201803590602001908080601f0160208091040260200160405190810160405280939291908181526020018383808284378201915050505050509192919290803590602001908201803590602001908080601f0160208091040260200160405190810160405280939291908181526020018383808284378201915050505050509192919290505050610759565b60405180826000191660001916815260200191505060405180910390f35b3480156102fd57600080fd5b5061039e600480360381019080803590602001908201803590602001908080601f0160208091040260200160405190810160405280939291908181526020018383808284378201915050505050509192919290803590602001908201803590602001908080601f016020809104026020016040519081016040528093929190818152602001838380828437820191505050505050919291929050505061081b565b005b3480156103ac57600080fd5b506103b5610a5a565b005b3480156103c357600080fd5b506103e260048036038101908080359060200190929190505050610b5c565b604051808273ffffffffffffffffffffffffffffffffffffffff1673ffffffffffffffffffffffffffffffffffffffff16815260200191505060405180910390f35b34801561043057600080fd5b50610439610b9a565b6040518082815260200191505060405180910390f35b34801561045b57600080fd5b50610490600480360381019080803573ffffffffffffffffffffffffffffffffffffffff169060200190929190505050610b9f565b60405180826000191660001916815260200191505060405180910390f35b3480156104ba57600080fd5b506104c3610bb7565b6040518082815260200191505060405180910390f35b3480156104e557600080fd5b506104ee610bbc565b604051808260018111156104fe57fe5b60ff16815260200191505060405180910390f35b34801561051e57600080fd5b50610527610bcf565b604051808273ffffffffffffffffffffffffffffffffffffffff1673ffffffffffffffffffffffffffffffffffffffff16815260200191505060405180910390f35b34801561057557600080fd5b5061057e610bf4565b005b34801561058c57600080fd5b506105c1600480360381019080803573ffffffffffffffffffffffffffffffffffffffff16906020019092919050505061104e565b6040518082815260200191505060405180910390f35b3480156105e357600080fd5b5061060260048036038101908080359060200190929190505050611066565b604051808273ffffffffffffffffffffffffffffffffffffffff1673ffffffffffffffffffffffffffffffffffffffff16815260200191505060405180910390f35b61066660048036038101908080356000191690602001909291905050506110a4565b005b34801561067457600080fd5b506106a9600480360381019080803573ffffffffffffffffffffffffffffffffffffffff169060200190929190505050611176565b005b3480156106b757600080fd5b506106c06112cb565b6040518082815260200191505060405180910390f35b60015481565b6000809054906101000a900473ffffffffffffffffffffffffffffffffffffffff1673ffffffffffffffffffffffffffffffffffffffff163373ffffffffffffffffffffffffffffffffffffffff1614151561073757600080fd5b8060078190555050565b600a5481565b60085481565b60095481565b60075481565b600082826040518083805190602001908083835b602083101515610792578051825260208201915060208101905060208303925061076d565b6001836020036101000a03801982511681845116808217855250505050505090500182805190602001908083835b6020831015156107e557805182526020820191506020810190506020830392506107c0565b6001836020036101000a038019825116818451168082178552505050505050905001925050506040518091039020905092915050565b600060018081111561082957fe5b600060149054906101000a900460ff16600181111561084457fe5b14151561085057600080fd5b610859836112d0565b90506000811015801561086d575060648111155b151561087857600080fd5b82826040518083805190602001908083835b6020831015156108af578051825260208201915060208101905060208303925061088a565b6001836020036101000a03801982511681845116808217855250505050505090500182805190602001908083835b60208310151561090257805182526020820191506020810190506020830392506108dd565b6001836020036101000a03801982511681845116808217855250505050505090500192505050604051809103902060001916600260003373ffffffffffffffffffffffffffffffffffffffff1673ffffffffffffffffffffffffffffffffffffffff168152602001908152602001600020546000191614151561098457600080fd5b80600360003373ffffffffffffffffffffffffffffffffffffffff1673ffffffffffffffffffffffffffffffffffffffff1681526020019081526020016000208190555060043390806001815401808255809150509060018203906000526020600020016000909192909190916101000a81548173ffffffffffffffffffffffffffffffffffffffff021916908373ffffffffffffffffffffffffffffffffffffffff16021790555050600a60008154809291906001019190505550600754600a541415610a5557610a54610bf4565b5b505050565b6000809054906101000a900473ffffffffffffffffffffffffffffffffffffffff1673ffffffffffffffffffffffffffffffffffffffff163373ffffffffffffffffffffffffffffffffffffffff16141515610ab557600080fd5b6000809054906101000a900473ffffffffffffffffffffffffffffffffffffffff1673ffffffffffffffffffffffffffffffffffffffff167ff8df31144d9c2f0f6b59d69b8b98abd5459d07f2742c4df920b25aae33c6482060405160405180910390a260008060006101000a81548173ffffffffffffffffffffffffffffffffffffffff021916908373ffffffffffffffffffffffffffffffffffffffff160217905550565b600481815481101515610b6b57fe5b906000526020600020016000915054906101000a900473ffffffffffffffffffffffffffffffffffffffff1681565b606481565b60026020528060005260406000206000915090505481565b600181565b600060149054906101000a900460ff1681565b6000809054906101000a900473ffffffffffffffffffffffffffffffffffffffff1681565b60008060008060008060008060008060009950600098505b600480549050891015610ca6576003600060048b815481101515610c2c57fe5b9060005260206000200160009054906101000a900473ffffffffffffffffffffffffffffffffffffffff1673ffffffffffffffffffffffffffffffffffffffff1673ffffffffffffffffffffffffffffffffffffffff168152602001908152602001600020549750878a0199508880600101995050610c0c565b6004805490508a811515610cb657fe5b049650600360028802811515610cc857fe5b04955060649450600098505b600480549050891015610ee7576003600060048b815481101515610cf457fe5b9060005260206000200160009054906101000a900473ffffffffffffffffffffffffffffffffffffffff1673ffffffffffffffffffffffffffffffffffffffff1673ffffffffffffffffffffffffffffffffffffffff16815260200190815260200160002054925082861115610d6e578286039350610d74565b85830393505b84841015610e315760056000610d8a91906114da565b600560048a815481101515610d9b57fe5b9060005260206000200160009054906101000a900473ffffffffffffffffffffffffffffffffffffffff1690806001815401808255809150509060018203906000526020600020016000909192909190916101000a81548173ffffffffffffffffffffffffffffffffffffffff021916908373ffffffffffffffffffffffffffffffffffffffff16021790555050839450610eda565b84841415610ed957600560048a815481101515610e4a57fe5b9060005260206000200160009054906101000a900473ffffffffffffffffffffffffffffffffffffffff1690806001815401808255809150509060018203906000526020600020016000909192909190916101000a81548173ffffffffffffffffffffffffffffffffffffffff021916908373ffffffffffffffffffffffffffffffffffffffff160217905550505b5b8880600101995050610cd4565b600160643073ffffffffffffffffffffffffffffffffffffffff1631811515610f0c57fe5b04029150600660009054906101000a900473ffffffffffffffffffffffffffffffffffffffff1673ffffffffffffffffffffffffffffffffffffffff166108fc839081150290604051600060405180830381858888f19350505050158015610f78573d6000803e3d6000fd5b506005805490503073ffffffffffffffffffffffffffffffffffffffff1631811515610fa057fe5b049050600098505b60058054905089101561104257600589815481101515610fc457fe5b9060005260206000200160009054906101000a900473ffffffffffffffffffffffffffffffffffffffff1673ffffffffffffffffffffffffffffffffffffffff166108fc829081150290604051600060405180830381858888f19350505050158015611034573d6000803e3d6000fd5b508880600101995050610fa8565b50505050505050505050565b60036020528060005260406000206000915090505481565b60058181548110151561107557fe5b906000526020600020016000915054906101000a900473ffffffffffffffffffffffffffffffffffffffff1681565b600060018111156110b157fe5b600060149054906101000a900460ff1660018111156110cc57fe5b1415156110d857600080fd5b600854341415156110e857600080fd5b80600260003373ffffffffffffffffffffffffffffffffffffffff1673ffffffffffffffffffffffffffffffffffffffff16815260200190815260200160002081600019169055506009600081548092919060010191905055506007546009541415611173576001600060146101000a81548160ff0219169083600181111561116d57fe5b02179055505b50565b6000809054906101000a900473ffffffffffffffffffffffffffffffffffffffff1673ffffffffffffffffffffffffffffffffffffffff163373ffffffffffffffffffffffffffffffffffffffff161415156111d157600080fd5b600073ffffffffffffffffffffffffffffffffffffffff168173ffffffffffffffffffffffffffffffffffffffff161415151561120d57600080fd5b8073ffffffffffffffffffffffffffffffffffffffff166000809054906101000a900473ffffffffffffffffffffffffffffffffffffffff1673ffffffffffffffffffffffffffffffffffffffff167f8be0079c531659141344cd1fd0a4f28419497f9722a3daafe3b4186f6b6457e060405160405180910390a3806000806101000a81548173ffffffffffffffffffffffffffffffffffffffff021916908373ffffffffffffffffffffffffffffffffffffffff16021790555050565b600081565b6000606060008084925060009150600090505b82518110156114cf5760307f010000000000000000000000000000000000000000000000000000000000000002838281518110151561131e57fe5b9060200101517f010000000000000000000000000000000000000000000000000000000000000090047f0100000000000000000000000000000000000000000000000000000000000000027effffffffffffffffffffffffffffffffffffffffffffffffffffffffffffff191610158015611436575060397f01000000000000000000000000000000000000000000000000000000000000000283828151811015156113c657fe5b9060200101517f010000000000000000000000000000000000000000000000000000000000000090047f0100000000000000000000000000000000000000000000000000000000000000027effffffffffffffffffffffffffffffffffffffffffffffffffffffffffffff191611155b156114c2576030838281518110151561144b57fe5b9060200101517f010000000000000000000000000000000000000000000000000000000000000090047f0100000000000000000000000000000000000000000000000000000000000000027f0100000000000000000000000000000000000000000000000000000000000000900403600a83020191505b80806001019150506112e3565b819350505050919050565b50805460008255906000526020600020908101906114f891906114fb565b50565b61151d91905b80821115611519576000816000905550600101611501565b5090565b905600a165627a7a72305820f47cf5882e01c1964db2245fc81420bd4282c49235423fa488a89497c7a3cc0a0029",
  "source": "pragma solidity ^0.4.23;\n\nimport \"./Ownable.sol\";\n\ncontract Game is Ownable {\n\n    enum GameState {COMMIT_STATE, REVEAL_STATE}\n    GameState public game_state = GameState.COMMIT_STATE;\n    //DEBUG: Enums cannot be tested. Value mirrors the enum\n    uint public game_state_debug = 0;\n\n    mapping (address => bytes32) public commits;\n    mapping (address => uint) public game_data;\n    address[] public player_addrs;\n    address[] public winners;\n    \n    address OUR_ADDRESS = 0x2540099e9ed04aF369d557a40da2D8f9c2ab928D; //Address \n    uint public constant GAME_FEE_PERCENT = 1;\n    uint public MAX_PLAYERS = 1;\n    uint public constant MIN_GUESS = 0;\n    uint public constant MAX_GUESS = 100; \n\n    uint public BET_SIZE = 1; //0.01 ether;\n    uint public curr_number_bets = 0;\n    uint public curr_number_reveals = 0;\n\n    function set_MAX_PLAYERS(uint new_val) public onlyOwner {\n        MAX_PLAYERS = new_val;\n    }\n\n    // Commit your guess. \n    function commit(bytes32 hashed_com) public payable{\n        require(game_state == GameState.COMMIT_STATE);\n        require(msg.value == BET_SIZE);\n\n        commits[msg.sender] = hashed_com;\n        curr_number_bets++;\n\n        // If we received the MAX_PLAYER number of commits, it is time for\n        // us to change state.\n        if (curr_number_bets == MAX_PLAYERS) {\n            game_state = GameState.REVEAL_STATE;\n        }\n    }\n\n    function getSha(string one, string two) public view returns(bytes32) {\n        return keccak256(one, two);\n    }\n\n    // returns (string)\n    //DEBUG: remove return\n    function reveal(string guess, string random) public  {\n        \n        require(game_state == GameState.REVEAL_STATE);\n        \n        uint guess_num = stringToUint(guess);\n        \n        require(guess_num >= MIN_GUESS && guess_num <= MAX_GUESS);\n\n        // Check that the hashes match\n        require(commits[msg.sender] == keccak256(guess, random));\n\n        // When they do, we add the revealed guess to game data\n        game_data[msg.sender] = guess_num;\n        player_addrs.push(msg.sender);\n        curr_number_reveals++;\n\n        if(curr_number_reveals == MAX_PLAYERS){\n            find_winner();\n        }\n    }\n\n\n    function find_winner() public {\n        uint guess_sum = 0;\n        for(uint i = 0; i < player_addrs.length; i++){\n            uint tmp = game_data[player_addrs[i]];\n            guess_sum += tmp;\n        }\n\n        uint average = guess_sum/player_addrs.length;\n        uint twothirdsavg = (average * 2) / 3;\n\n        uint min_diff = MAX_GUESS;\n        uint cur_diff;\n        for(i = 0; i < player_addrs.length; i++) {\n            \n            uint cur_guess = game_data[player_addrs[i]];\n\n            // Find the difference between the guess and the average\n            if(twothirdsavg > cur_guess){\n                cur_diff = twothirdsavg - cur_guess;\n            }\n            else{\n                cur_diff = cur_guess - twothirdsavg;\n            }\n            \n            // If the difference is less than the smallest difference,\n            // we delete all the winners and add the new candidate\n            if(cur_diff < min_diff) {\n                delete winners;\n                winners.push(player_addrs[i]);\n                min_diff = cur_diff;\n            // Else, if the difference are the same, we add the candidate to the \n            // list of winners\n            } else if(cur_diff == min_diff){\n                winners.push(player_addrs[i]);\n            }\n        }\n\n        uint gamefee = (address(this).balance/100) * GAME_FEE_PERCENT;\n\n        OUR_ADDRESS.transfer(gamefee);\n\n        uint prize = address(this).balance/winners.length;\n\n        for(i = 0; i < winners.length; i++){\n            winners[i].transfer(prize); \n        }\n    }\n\n    function toCommitState() internal {\n        game_state = GameState.COMMIT_STATE;\n        game_state_debug = 0;\n        delete winners;\n        curr_number_bets = 0;\n        curr_number_reveals = 0;\n\n    }\n\n    // Move to helper\n    function bytes32ToString (bytes32 data) private returns (string) {\n        bytes memory bytesString = new bytes(32);\n        for (uint j = 0; j < 32 ;j++) {\n            byte char = byte(bytes32(uint(data) * 2 ** (8 * j)));\n            if (char != 0) {\n                bytesString[j] = char;\n            }\n        }\n        return string(bytesString);\n    }\n\n    function stringToUint(string s) constant private returns (uint) {\n        bytes memory b = bytes(s);\n        uint result = 0;\n        for (uint i = 0; i < b.length; i++) { // c = b[i] was not needed\n            if (b[i] >= 48 && b[i] <= 57) {\n                result = result * 10 + (uint(b[i]) - 48); // bytes and int are not compatible with the operator -.\n            }\n        }\n        return result; // this was missing\n    }\n\n}",
  "sourcePath": "/Users/freeslugs/Documents/Code/nashhash/contracts/Game.sol",
  "compiler": {
    "name": "solc",
    "version": "0.4.23+commit.124ca40d.Emscripten.clang"
  },
  "schemaVersion": "2.0.0",
  "updatedAt": "2018-05-13T03:10:52.757Z"
}