{
  "contractName": "LowestUniqueNum",
  "abi": [
    {
      "constant": true,
      "inputs": [],
      "name": "getLastPrize",
      "outputs": [
        {
          "name": "",
          "type": "uint256"
        }
      ],
      "payable": false,
      "stateMutability": "view",
      "type": "function"
    },
    {
      "constant": true,
      "inputs": [],
      "name": "getCurrentCommits",
      "outputs": [
        {
          "name": "",
          "type": "uint256"
        }
      ],
      "payable": false,
      "stateMutability": "view",
      "type": "function"
    },
    {
      "constant": false,
      "inputs": [
        {
          "name": "new_max",
          "type": "uint256"
        }
      ],
      "name": "setMaxPlayers",
      "outputs": [],
      "payable": false,
      "stateMutability": "nonpayable",
      "type": "function"
    },
    {
      "constant": true,
      "inputs": [
        {
          "name": "",
          "type": "address"
        }
      ],
      "name": "gameData",
      "outputs": [
        {
          "name": "",
          "type": "string"
        }
      ],
      "payable": false,
      "stateMutability": "view",
      "type": "function"
    },
    {
      "constant": true,
      "inputs": [],
      "name": "getCurrentReveals",
      "outputs": [
        {
          "name": "",
          "type": "uint256"
        }
      ],
      "payable": false,
      "stateMutability": "view",
      "type": "function"
    },
    {
      "constant": false,
      "inputs": [],
      "name": "unpause",
      "outputs": [],
      "payable": false,
      "stateMutability": "nonpayable",
      "type": "function"
    },
    {
      "constant": true,
      "inputs": [],
      "name": "rules",
      "outputs": [
        {
          "name": "MIN_GUESS",
          "type": "uint256"
        },
        {
          "name": "MAX_GUESS",
          "type": "uint256"
        }
      ],
      "payable": false,
      "stateMutability": "view",
      "type": "function"
    },
    {
      "constant": false,
      "inputs": [
        {
          "name": "guess",
          "type": "string"
        },
        {
          "name": "random",
          "type": "string"
        }
      ],
      "name": "reveal",
      "outputs": [],
      "payable": false,
      "stateMutability": "nonpayable",
      "type": "function"
    },
    {
      "constant": true,
      "inputs": [],
      "name": "getGameFee",
      "outputs": [
        {
          "name": "",
          "type": "uint256"
        }
      ],
      "payable": false,
      "stateMutability": "view",
      "type": "function"
    },
    {
      "constant": true,
      "inputs": [],
      "name": "paused",
      "outputs": [
        {
          "name": "",
          "type": "bool"
        }
      ],
      "payable": false,
      "stateMutability": "view",
      "type": "function"
    },
    {
      "constant": false,
      "inputs": [],
      "name": "payout",
      "outputs": [],
      "payable": false,
      "stateMutability": "nonpayable",
      "type": "function"
    },
    {
      "constant": false,
      "inputs": [
        {
          "name": "npt_addr",
          "type": "address"
        }
      ],
      "name": "setNPTAddress",
      "outputs": [],
      "payable": false,
      "stateMutability": "nonpayable",
      "type": "function"
    },
    {
      "constant": true,
      "inputs": [
        {
          "name": "i",
          "type": "uint256"
        }
      ],
      "name": "getLastWinners",
      "outputs": [
        {
          "name": "",
          "type": "address"
        }
      ],
      "payable": false,
      "stateMutability": "view",
      "type": "function"
    },
    {
      "constant": true,
      "inputs": [],
      "name": "getCommitStageStartBlock",
      "outputs": [
        {
          "name": "",
          "type": "uint256"
        }
      ],
      "payable": false,
      "stateMutability": "view",
      "type": "function"
    },
    {
      "constant": false,
      "inputs": [],
      "name": "renounceOwnership",
      "outputs": [],
      "payable": false,
      "stateMutability": "nonpayable",
      "type": "function"
    },
    {
      "constant": false,
      "inputs": [],
      "name": "forceToPayoutState",
      "outputs": [],
      "payable": false,
      "stateMutability": "nonpayable",
      "type": "function"
    },
    {
      "constant": true,
      "inputs": [],
      "name": "getStakeSize",
      "outputs": [
        {
          "name": "",
          "type": "uint256"
        }
      ],
      "payable": false,
      "stateMutability": "view",
      "type": "function"
    },
    {
      "constant": true,
      "inputs": [
        {
          "name": "",
          "type": "address"
        }
      ],
      "name": "commits",
      "outputs": [
        {
          "name": "",
          "type": "bytes32"
        }
      ],
      "payable": false,
      "stateMutability": "view",
      "type": "function"
    },
    {
      "constant": false,
      "inputs": [],
      "name": "pause",
      "outputs": [],
      "payable": false,
      "stateMutability": "nonpayable",
      "type": "function"
    },
    {
      "constant": false,
      "inputs": [],
      "name": "forceToRevealState",
      "outputs": [],
      "payable": false,
      "stateMutability": "nonpayable",
      "type": "function"
    },
    {
      "constant": true,
      "inputs": [],
      "name": "getMaxPlayers",
      "outputs": [
        {
          "name": "",
          "type": "uint256"
        }
      ],
      "payable": false,
      "stateMutability": "view",
      "type": "function"
    },
    {
      "constant": true,
      "inputs": [],
      "name": "owner",
      "outputs": [
        {
          "name": "",
          "type": "address"
        }
      ],
      "payable": false,
      "stateMutability": "view",
      "type": "function"
    },
    {
      "constant": true,
      "inputs": [],
      "name": "getNumberOfWinners",
      "outputs": [
        {
          "name": "",
          "type": "uint256"
        }
      ],
      "payable": false,
      "stateMutability": "view",
      "type": "function"
    },
    {
      "constant": true,
      "inputs": [],
      "name": "getRevealStageStartBlock",
      "outputs": [
        {
          "name": "",
          "type": "uint256"
        }
      ],
      "payable": false,
      "stateMutability": "view",
      "type": "function"
    },
    {
      "constant": true,
      "inputs": [],
      "name": "testLowest",
      "outputs": [
        {
          "name": "",
          "type": "uint256"
        }
      ],
      "payable": false,
      "stateMutability": "view",
      "type": "function"
    },
    {
      "constant": true,
      "inputs": [],
      "name": "getGameState",
      "outputs": [
        {
          "name": "",
          "type": "uint256"
        }
      ],
      "payable": false,
      "stateMutability": "view",
      "type": "function"
    },
    {
      "constant": false,
      "inputs": [],
      "name": "resetGame",
      "outputs": [],
      "payable": false,
      "stateMutability": "nonpayable",
      "type": "function"
    },
    {
      "constant": true,
      "inputs": [],
      "name": "birthBlock",
      "outputs": [
        {
          "name": "",
          "type": "uint256"
        }
      ],
      "payable": false,
      "stateMutability": "view",
      "type": "function"
    },
    {
      "constant": false,
      "inputs": [
        {
          "name": "hashedCommit",
          "type": "bytes32"
        }
      ],
      "name": "commit",
      "outputs": [],
      "payable": true,
      "stateMutability": "payable",
      "type": "function"
    },
    {
      "constant": false,
      "inputs": [
        {
          "name": "newOwner",
          "type": "address"
        }
      ],
      "name": "transferOwnership",
      "outputs": [],
      "payable": false,
      "stateMutability": "nonpayable",
      "type": "function"
    },
    {
      "constant": false,
      "inputs": [
        {
          "name": "new_stake",
          "type": "uint256"
        }
      ],
      "name": "setStakeSize",
      "outputs": [],
      "payable": false,
      "stateMutability": "nonpayable",
      "type": "function"
    },
    {
      "inputs": [
        {
          "name": "_feeAddress",
          "type": "address"
        },
        {
          "name": "_gameFeePercent",
          "type": "uint256"
        },
        {
          "name": "_stakeSize",
          "type": "uint256"
        },
        {
          "name": "_maxp",
          "type": "uint256"
        },
        {
          "name": "_gameStageLength",
          "type": "uint256"
        },
        {
          "name": "_nptAddress",
          "type": "address"
        }
      ],
      "payable": false,
      "stateMutability": "nonpayable",
      "type": "constructor"
    },
    {
      "anonymous": false,
      "inputs": [],
      "name": "CommitsSubmitted",
      "type": "event"
    },
    {
      "anonymous": false,
      "inputs": [],
      "name": "RevealsSubmitted",
      "type": "event"
    },
    {
      "anonymous": false,
      "inputs": [],
      "name": "NewRoundStarted",
      "type": "event"
    },
    {
      "anonymous": false,
      "inputs": [],
      "name": "Pause",
      "type": "event"
    },
    {
      "anonymous": false,
      "inputs": [],
      "name": "Unpause",
      "type": "event"
    },
    {
      "anonymous": false,
      "inputs": [
        {
          "indexed": true,
          "name": "previousOwner",
          "type": "address"
        }
      ],
      "name": "OwnershipRenounced",
      "type": "event"
    },
    {
      "anonymous": false,
      "inputs": [
        {
          "indexed": true,
          "name": "previousOwner",
          "type": "address"
        },
        {
          "indexed": true,
          "name": "newOwner",
          "type": "address"
        }
      ],
      "name": "OwnershipTransferred",
      "type": "event"
    }
  ],
  "bytecode": "0x608060405260008060146101000a81548160ff02191690831515021790555043600155600260000160009054906101000a900473ffffffffffffffffffffffffffffffffffffffff16601660006101000a81548173ffffffffffffffffffffffffffffffffffffffff021916908373ffffffffffffffffffffffffffffffffffffffff1602179055506000601b553480156200009a57600080fd5b5060405160c08062002750833981018060405281019080805190602001909291908051906020019092919080519060200190929190805190602001909291908051906020019092919080519060200190929190505050858585858585336000806101000a81548173ffffffffffffffffffffffffffffffffffffffff021916908373ffffffffffffffffffffffffffffffffffffffff160217905550336000806101000a81548173ffffffffffffffffffffffffffffffffffffffff021916908373ffffffffffffffffffffffffffffffffffffffff16021790555081600260030181905550846002600101819055508260026004018190555083600280018190555085600260000160006101000a81548173ffffffffffffffffffffffffffffffffffffffff021916908373ffffffffffffffffffffffffffffffffffffffff16021790555080600260050160006101000a81548173ffffffffffffffffffffffffffffffffffffffff021916908373ffffffffffffffffffffffffffffffffffffffff1602179055506000600860000160006101000a81548160ff021916908360028111156200024857fe5b02179055506000600860020181905550600060086003018190555060026003015460001903600860040181905550600260030154600019036008600501819055506000600f6002018190555082604051908082528060200260200182016040528015620002c45781602001602082028038833980820191505090505b5060139080519060200190620002dc929190620003a9565b50826040519080825280602002602001820160405280156200030d5781602001602082028038833980820191505090505b506015908051906020019062000325929190620003a9565b5082604051908082528060200260200182016040528015620003565781602001602082028038833980820191505090505b50600f600001908051906020019062000371929190620003a9565b506000600f6001018190555050505050505060006019600001819055506001600019036019600101819055505050505050506200047e565b82805482825590600052602060002090810192821562000425579160200282015b82811115620004245782518260006101000a81548173ffffffffffffffffffffffffffffffffffffffff021916908373ffffffffffffffffffffffffffffffffffffffff16021790555091602001919060010190620003ca565b5b50905062000434919062000438565b5090565b6200047b91905b808211156200047757600081816101000a81549073ffffffffffffffffffffffffffffffffffffffff0219169055506001016200043f565b5090565b90565b6122c2806200048e6000396000f30060806040526004361061018b576000357c0100000000000000000000000000000000000000000000000000000000900463ffffffff1680630cfa6131146101905780630d7099ea146101bb578063288dee3b146101e657806329bb80a0146102135780633e62aa72146102cf5780633f4ba83a146102fa57806352f6747a146103115780635ba1b2c7146103435780635bba88f1146103f25780635c975abb1461041d57806363bd1d4a1461044c5780636588ba5b146104635780636764f6fb146104a65780636cb9a39014610513578063715018a61461053e578063760704c11461055557806376cc4b7e1461056c5780637b43a8e6146105975780638456cb59146105f657806386b2b9861461060d5780638cbd9eb8146106245780638da5cb5b1461064f5780638e33cffc146106a65780639ebefb68146106d1578063a7a7769f146106fc578063b7d0628b14610727578063bb47221914610752578063bba4b31e14610769578063f14fcbc814610794578063f2fde38b146107b8578063f3b9204e146107fb575b600080fd5b34801561019c57600080fd5b506101a5610828565b6040518082815260200191505060405180910390f35b3480156101c757600080fd5b506101d0610835565b6040518082815260200191505060405180910390f35b3480156101f257600080fd5b5061021160048036038101908080359060200190929190505050610842565b005b34801561021f57600080fd5b50610254600480360381019080803573ffffffffffffffffffffffffffffffffffffffff1690602001909291905050506108aa565b6040518080602001828103825283818151815260200191508051906020019080838360005b83811015610294578082015181840152602081019050610279565b50505050905090810190601f1680156102c15780820380516001836020036101000a031916815260200191505b509250505060405180910390f35b3480156102db57600080fd5b506102e461095a565b6040518082815260200191505060405180910390f35b34801561030657600080fd5b5061030f610967565b005b34801561031d57600080fd5b50610326610a25565b604051808381526020018281526020019250505060405180910390f35b34801561034f57600080fd5b506103f0600480360381019080803590602001908201803590602001908080601f0160208091040260200160405190810160405280939291908181526020018383808284378201915050505050509192919290803590602001908201803590602001908080601f0160208091040260200160405190810160405280939291908181526020018383808284378201915050505050509192919290505050610a37565b005b3480156103fe57600080fd5b50610407610cc7565b6040518082815260200191505060405180910390f35b34801561042957600080fd5b50610432610cd4565b604051808215151515815260200191505060405180910390f35b34801561045857600080fd5b50610461610ce7565b005b34801561046f57600080fd5b506104a4600480360381019080803573ffffffffffffffffffffffffffffffffffffffff169060200190929190505050610da6565b005b3480156104b257600080fd5b506104d160048036038101908080359060200190929190505050610e48565b604051808273ffffffffffffffffffffffffffffffffffffffff1673ffffffffffffffffffffffffffffffffffffffff16815260200191505060405180910390f35b34801561051f57600080fd5b50610528610ea1565b6040518082815260200191505060405180910390f35b34801561054a57600080fd5b50610553610eae565b005b34801561056157600080fd5b5061056a610fb0565b005b34801561057857600080fd5b50610581611068565b6040518082815260200191505060405180910390f35b3480156105a357600080fd5b506105d8600480360381019080803573ffffffffffffffffffffffffffffffffffffffff169060200190929190505050611074565b60405180826000191660001916815260200191505060405180910390f35b34801561060257600080fd5b5061060b61108c565b005b34801561061957600080fd5b5061062261114c565b005b34801561063057600080fd5b50610639611204565b6040518082815260200191505060405180910390f35b34801561065b57600080fd5b50610664611211565b604051808273ffffffffffffffffffffffffffffffffffffffff1673ffffffffffffffffffffffffffffffffffffffff16815260200191505060405180910390f35b3480156106b257600080fd5b506106bb611236565b6040518082815260200191505060405180910390f35b3480156106dd57600080fd5b506106e6611243565b6040518082815260200191505060405180910390f35b34801561070857600080fd5b50610711611250565b6040518082815260200191505060405180910390f35b34801561073357600080fd5b5061073c611256565b6040518082815260200191505060405180910390f35b34801561075e57600080fd5b50610767611263565b005b34801561077557600080fd5b5061077e61135b565b6040518082815260200191505060405180910390f35b6107b66004803603810190808035600019169060200190929190505050611361565b005b3480156107c457600080fd5b506107f9600480360381019080803573ffffffffffffffffffffffffffffffffffffffff169060200190929190505050611510565b005b34801561080757600080fd5b5061082660048036038101908080359060200190929190505050611665565b005b6000600f60020154905090565b6000600860020154905090565b6000809054906101000a900473ffffffffffffffffffffffffffffffffffffffff1673ffffffffffffffffffffffffffffffffffffffff163373ffffffffffffffffffffffffffffffffffffffff1614151561089d57600080fd5b8060026004018190555050565b60146020528060005260406000206000915090508054600181600116156101000203166002900480601f0160208091040260200160405190810160405280929190818152602001828054600181600116156101000203166002900480156109525780601f1061092757610100808354040283529160200191610952565b820191906000526020600020905b81548152906001019060200180831161093557829003601f168201915b505050505081565b6000600860030154905090565b6000809054906101000a900473ffffffffffffffffffffffffffffffffffffffff1673ffffffffffffffffffffffffffffffffffffffff163373ffffffffffffffffffffffffffffffffffffffff161415156109c257600080fd5b600060149054906101000a900460ff1615156109dd57600080fd5b60008060146101000a81548160ff0219169083151502179055507f7805862f689e2f13df9f062ff482ad3ad112aca9e0847911ed832e158c525b3360405160405180910390a1565b60198060000154908060010154905082565b600060149054906101000a900460ff16151515610a5357600080fd5b60016002811115610a6057fe5b600860000160009054906101000a900460ff166002811115610a7e57fe5b141515610a8a57600080fd5b610a93826116cc565b81816040518083805190602001908083835b602083101515610aca5780518252602082019150602081019050602083039250610aa5565b6001836020036101000a03801982511681845116808217855250505050505090500182805190602001908083835b602083101515610b1d5780518252602082019150602081019050602083039250610af8565b6001836020036101000a03801982511681845116808217855250505050505090500192505050604051809103902060001916601260003373ffffffffffffffffffffffffffffffffffffffff1673ffffffffffffffffffffffffffffffffffffffff1681526020019081526020016000205460001916141515610b9f57600080fd5b601260003373ffffffffffffffffffffffffffffffffffffffff1673ffffffffffffffffffffffffffffffffffffffff1681526020019081526020016000206000905581601460003373ffffffffffffffffffffffffffffffffffffffff1673ffffffffffffffffffffffffffffffffffffffff1681526020019081526020016000209080519060200190610c359291906121d0565b50336015600860030154815481101515610c4b57fe5b9060005260206000200160006101000a81548173ffffffffffffffffffffffffffffffffffffffff021916908373ffffffffffffffffffffffffffffffffffffffff1602179055506008600301600081548092919060010191905055506002600401546008600301541415610cc357610cc2611702565b5b5050565b6000600260010154905090565b600060149054906101000a900460ff1681565b6000809054906101000a900473ffffffffffffffffffffffffffffffffffffffff1673ffffffffffffffffffffffffffffffffffffffff163373ffffffffffffffffffffffffffffffffffffffff16141515610d4257600080fd5b600060149054906101000a900460ff16151515610d5e57600080fd5b600280811115610d6a57fe5b600860000160009054906101000a900460ff166002811115610d8857fe5b141515610d9457600080fd5b610d9c611762565b610da4611d1a565b565b6000809054906101000a900473ffffffffffffffffffffffffffffffffffffffff1673ffffffffffffffffffffffffffffffffffffffff163373ffffffffffffffffffffffffffffffffffffffff16141515610e0157600080fd5b80600260050160006101000a81548173ffffffffffffffffffffffffffffffffffffffff021916908373ffffffffffffffffffffffffffffffffffffffff16021790555050565b6000600f6001015482101515610e5d57600080fd5b600f60000182815481101515610e6f57fe5b9060005260206000200160009054906101000a900473ffffffffffffffffffffffffffffffffffffffff169050919050565b6000600860040154905090565b6000809054906101000a900473ffffffffffffffffffffffffffffffffffffffff1673ffffffffffffffffffffffffffffffffffffffff163373ffffffffffffffffffffffffffffffffffffffff16141515610f0957600080fd5b6000809054906101000a900473ffffffffffffffffffffffffffffffffffffffff1673ffffffffffffffffffffffffffffffffffffffff167ff8df31144d9c2f0f6b59d69b8b98abd5459d07f2742c4df920b25aae33c6482060405160405180910390a260008060006101000a81548173ffffffffffffffffffffffffffffffffffffffff021916908373ffffffffffffffffffffffffffffffffffffffff160217905550565b6000809054906101000a900473ffffffffffffffffffffffffffffffffffffffff1673ffffffffffffffffffffffffffffffffffffffff163373ffffffffffffffffffffffffffffffffffffffff1614151561100b57600080fd5b600060149054906101000a900460ff1615151561102757600080fd5b6001600281111561103457fe5b600860000160009054906101000a900460ff16600281111561105257fe5b14151561105e57600080fd5b611066611702565b565b60006002800154905090565b60126020528060005260406000206000915090505481565b6000809054906101000a900473ffffffffffffffffffffffffffffffffffffffff1673ffffffffffffffffffffffffffffffffffffffff163373ffffffffffffffffffffffffffffffffffffffff161415156110e757600080fd5b600060149054906101000a900460ff1615151561110357600080fd5b6001600060146101000a81548160ff0219169083151502179055507f6985a02210a168e66602d3235cb6db0e70f92b3ba4d376a33c0f3d9434bff62560405160405180910390a1565b6000809054906101000a900473ffffffffffffffffffffffffffffffffffffffff1673ffffffffffffffffffffffffffffffffffffffff163373ffffffffffffffffffffffffffffffffffffffff161415156111a757600080fd5b600060149054906101000a900460ff161515156111c357600080fd5b600060028111156111d057fe5b600860000160009054906101000a900460ff1660028111156111ee57fe5b1415156111fa57600080fd5b611202611e53565b565b6000600260040154905090565b6000809054906101000a900473ffffffffffffffffffffffffffffffffffffffff1681565b6000600f60010154905090565b6000600860050154905090565b601b5481565b6000600860010154905090565b60008060009054906101000a900473ffffffffffffffffffffffffffffffffffffffff1673ffffffffffffffffffffffffffffffffffffffff163373ffffffffffffffffffffffffffffffffffffffff161415156112c057600080fd5b600060149054906101000a900460ff161515156112dc57600080fd5b6112e4611d1a565b6000600f60020181905550600090505b600f6001015481101561134d57600f6000018181548110151561131357fe5b9060005260206000200160006101000a81549073ffffffffffffffffffffffffffffffffffffffff021916905580806001019150506112f4565b6000600f6001018190555050565b60015481565b600060149054906101000a900460ff1615151561137d57600080fd5b6000600281111561138a57fe5b600860000160009054906101000a900460ff1660028111156113a857fe5b1415156113b457600080fd5b6002800154341415156113c657600080fd5b600060010260001916601260003373ffffffffffffffffffffffffffffffffffffffff1673ffffffffffffffffffffffffffffffffffffffff168152602001908152602001600020546000191614151561141f57600080fd5b80601260003373ffffffffffffffffffffffffffffffffffffffff1673ffffffffffffffffffffffffffffffffffffffff168152602001908152602001600020816000191690555033601360086002015481548110151561147c57fe5b9060005260206000200160006101000a81548173ffffffffffffffffffffffffffffffffffffffff021916908373ffffffffffffffffffffffffffffffffffffffff160217905550600860020160008154809291906001019190505550600160086002015414156114f257436008600401819055505b600260040154600860020154141561150d5761150c611e53565b5b50565b6000809054906101000a900473ffffffffffffffffffffffffffffffffffffffff1673ffffffffffffffffffffffffffffffffffffffff163373ffffffffffffffffffffffffffffffffffffffff1614151561156b57600080fd5b600073ffffffffffffffffffffffffffffffffffffffff168173ffffffffffffffffffffffffffffffffffffffff16141515156115a757600080fd5b8073ffffffffffffffffffffffffffffffffffffffff166000809054906101000a900473ffffffffffffffffffffffffffffffffffffffff1673ffffffffffffffffffffffffffffffffffffffff167f8be0079c531659141344cd1fd0a4f28419497f9722a3daafe3b4186f6b6457e060405160405180910390a3806000806101000a81548173ffffffffffffffffffffffffffffffffffffffff021916908373ffffffffffffffffffffffffffffffffffffffff16021790555050565b6000809054906101000a900473ffffffffffffffffffffffffffffffffffffffff1673ffffffffffffffffffffffffffffffffffffffff163373ffffffffffffffffffffffffffffffffffffffff161415156116c057600080fd5b80600280018190555050565b60006116d782611ebd565b905060196000015481101580156116f357506019600101548111155b15156116fe57600080fd5b5050565b6002600860000160006101000a81548160ff0219169083600281111561172457fe5b021790555060026008600101819055507f249eb5abee408afd11bfd7a0449ece5a765def88489dd844882a500f87280a2460405160405180910390a1565b60008060006060600080600080600097505b600860030154881015611a2c5761189a6014600060158b81548110151561179757fe5b9060005260206000200160009054906101000a900473ffffffffffffffffffffffffffffffffffffffff1673ffffffffffffffffffffffffffffffffffffffff1673ffffffffffffffffffffffffffffffffffffffff1681526020019081526020016000208054600181600116156101000203166002900480601f0160208091040260200160405190810160405280929190818152602001828054600181600116156101000203166002900480156118905780601f1061186557610100808354040283529160200191611890565b820191906000526020600020905b81548152906001019060200180831161187357829003601f168201915b5050505050611ebd565b965060006017600089815260200190815260200160002060009054906101000a900473ffffffffffffffffffffffffffffffffffffffff1673ffffffffffffffffffffffffffffffffffffffff1614156119aa576015888154811015156118fd57fe5b9060005260206000200160009054906101000a900473ffffffffffffffffffffffffffffffffffffffff166017600089815260200190815260200160002060006101000a81548173ffffffffffffffffffffffffffffffffffffffff021916908373ffffffffffffffffffffffffffffffffffffffff1602179055506018879080600181540180825580915050906001820390600052602060002001600090919290919091505550611a1f565b601660009054906101000a900473ffffffffffffffffffffffffffffffffffffffff166017600089815260200190815260200160002060006101000a81548173ffffffffffffffffffffffffffffffffffffffff021916908373ffffffffffffffffffffffffffffffffffffffff1602179055505b8780600101985050611774565b60016019600101540195506001604051908082528060200260200182016040528015611a675781602001602082028038833980820191505090505b509450600093505b601880549050841015611c4357601884815481101515611a8b57fe5b90600052602060002001549250601660009054906101000a900473ffffffffffffffffffffffffffffffffffffffff1673ffffffffffffffffffffffffffffffffffffffff166017600085815260200190815260200160002060009054906101000a900473ffffffffffffffffffffffffffffffffffffffff1673ffffffffffffffffffffffffffffffffffffffff16141515611c005785601885815481101515611b3257fe5b90600052602060002001541015611bff57601884815481101515611b5257fe5b90600052602060002001549550601884815481101515611b6e57fe5b9060005260206000200154601b819055506017600084815260200190815260200160002060009054906101000a900473ffffffffffffffffffffffffffffffffffffffff16856000815181101515611bc257fe5b9060200190602002019073ffffffffffffffffffffffffffffffffffffffff16908173ffffffffffffffffffffffffffffffffffffffff16815250505b5b6017600084815260200190815260200160002060006101000a81549073ffffffffffffffffffffffffffffffffffffffff02191690558380600101945050611a6f565b60186000611c519190612250565b60026001015460643073ffffffffffffffffffffffffffffffffffffffff1631811515611c7a57fe5b04029150600260000160009054906101000a900473ffffffffffffffffffffffffffffffffffffffff1673ffffffffffffffffffffffffffffffffffffffff166108fc839081150290604051600060405180830381858888f19350505050158015611ce9573d6000803e3d6000fd5b503073ffffffffffffffffffffffffffffffffffffffff16319050611d10856001836120c7565b5050505050505050565b600080600860000160006101000a81548160ff02191690836002811115611d3d57fe5b02179055506000600860010181905550600090505b600860020154811015611de85760126000601383815481101515611d7257fe5b9060005260206000200160009054906101000a900473ffffffffffffffffffffffffffffffffffffffff1673ffffffffffffffffffffffffffffffffffffffff1673ffffffffffffffffffffffffffffffffffffffff168152602001908152602001600020600090558080600101915050611d52565b6000600860020181905550600060086003018190555060026003015460001903600860040181905550600260030154600019036008600501819055507fc80d42c5999c8ad689a434b47a3eecdc54fa3b27a31b49cb02b8c5075929fecc60405160405180910390a150565b6001600860000160006101000a81548160ff02191690836002811115611e7557fe5b02179055506001600860010181905550436008600501819055507f69c81b49bf12351dbabf91faefefa2b2ee324d944cd6a8b3b8416ade0232666460405160405180910390a1565b6000606060008084925060009150600090505b82518110156120bc5760307f0100000000000000000000000000000000000000000000000000000000000000028382815181101515611f0b57fe5b9060200101517f010000000000000000000000000000000000000000000000000000000000000090047f0100000000000000000000000000000000000000000000000000000000000000027effffffffffffffffffffffffffffffffffffffffffffffffffffffffffffff191610158015612023575060397f0100000000000000000000000000000000000000000000000000000000000000028382815181101515611fb357fe5b9060200101517f010000000000000000000000000000000000000000000000000000000000000090047f0100000000000000000000000000000000000000000000000000000000000000027effffffffffffffffffffffffffffffffffffffffffffffffffffffffffffff191611155b156120af576030838281518110151561203857fe5b9060200101517f010000000000000000000000000000000000000000000000000000000000000090047f0100000000000000000000000000000000000000000000000000000000000000027f0100000000000000000000000000000000000000000000000000000000000000900403600a83020191505b8080600101915050611ed0565b819350505050919050565b600080905082600f60010181905550600090505b828110156121c05783818151811015156120f157fe5b9060200190602002015173ffffffffffffffffffffffffffffffffffffffff166108fc839081150290604051600060405180830381858888f19350505050158015612140573d6000803e3d6000fd5b50838181518110151561214f57fe5b90602001906020020151600f6000018281548110151561216b57fe5b9060005260206000200160006101000a81548173ffffffffffffffffffffffffffffffffffffffff021916908373ffffffffffffffffffffffffffffffffffffffff16021790555080806001019150506120db565b81600f6002018190555050505050565b828054600181600116156101000203166002900490600052602060002090601f016020900481019282601f1061221157805160ff191683800117855561223f565b8280016001018555821561223f579182015b8281111561223e578251825591602001919060010190612223565b5b50905061224c9190612271565b5090565b508054600082559060005260206000209081019061226e9190612271565b50565b61229391905b8082111561228f576000816000905550600101612277565b5090565b905600a165627a7a72305820dbffb925bda12c2bc87a4f5bae0c3eb693f7fd5701fdfb82ddd99d62f6a0761a0029",
  "source": "pragma solidity ^0.4.23;\n\nimport \"./Game.sol\";\n\n\n//NEEDED: Account for scenario where no one wins (no unique number) !!!\ncontract LowestUniqueNum is Game {\n\n    address NULL_ADDR = config.FEE_ADDRESS;\n\n    // Guesses and guesser addresses\n    mapping (uint => address) private guessAddrs;\n    uint[] private guesses;\n\n    struct Rules {\n        uint MIN_GUESS;\n        uint MAX_GUESS;\n    }\n\n    Rules public rules;\n\n    // Debug\n    uint public testLowest = 0;\n\n    constructor(\n        address _feeAddress,\n        uint _gameFeePercent,\n        uint _stakeSize,\n        uint _maxp, \n        uint _gameStageLength,\n        address _nptAddress) public Game(_feeAddress, _gameFeePercent, _stakeSize, _maxp, _gameStageLength, _nptAddress) {\n        rules.MIN_GUESS = 0;\n        rules.MAX_GUESS = ~uint256(0) - 1;\n    }\n\n    function checkGuess(string guess) private {\n        uint guess_num = stringToUint(guess);\n        require(guess_num >= rules.MIN_GUESS && guess_num <= rules.MAX_GUESS);\n    }\n\n    function findWinners() private {\n\n        for(uint i = 0; i < state.currNumberReveals; i++){\n            uint tmp = stringToUint(gameData[gameDataKeys[i]]);\n\n            //If guess is unique input guesser address to mapping\n            if(guessAddrs[tmp] == 0){\n                guessAddrs[tmp] = gameDataKeys[i];\n                guesses.push(tmp);\n            }\n\n            //If guess is no longer unique input NULL_ADDR to mapping\n            else {\n                guessAddrs[tmp] = NULL_ADDR;\n            }\n        }\n\n        uint lowest_unique_guess = rules.MAX_GUESS + 1;\n        //Declared as array for interface purposes\n        address[] memory winner = new address[](1);\n\n        for(uint j = 0; j < guesses.length; j++){\n            uint cur_guess = guesses[j];\n\n            //If guess is unique\n            if(guessAddrs[cur_guess] != NULL_ADDR){\n                //If guess is lower than current min\n                if(guesses[j] < lowest_unique_guess){\n                    lowest_unique_guess = guesses[j];\n                    testLowest = guesses[j];\n                    winner[0] = guessAddrs[cur_guess];\n                }\n            }\n            //Clear mapping for next round\n            delete guessAddrs[cur_guess];\n        }\n\n        //Clear array for next round\n        delete guesses;\n\n        // Lets pay ourselves some money\n        uint gamefee = (address(this).balance/100) * config.GAME_FEE_PERCENT;\n        config.FEE_ADDRESS.transfer(gamefee);\n\n        // Give the rest to winner\n        uint prize = address(this).balance;\n        performPayout(winner, 1, prize);\n\n\n    } \n}",
  "sourcePath": "/Users/freeslugs/Documents/Code/nashhash/contracts/LowestUniqueNum.sol",
  "compiler": {
    "name": "solc",
    "version": "0.4.23+commit.124ca40d.Emscripten.clang"
  },
  "schemaVersion": "2.0.0",
  "updatedAt": "2018-06-14T12:48:53.671Z"
}