{
  "contractName": "TwoThirdsAverage",
  "abi": [
    {
      "constant": true,
      "inputs": [],
      "name": "getLastPrize",
      "outputs": [
        {
          "name": "",
          "type": "uint256"
        }
      ],
      "payable": false,
      "stateMutability": "view",
      "type": "function"
    },
    {
      "constant": true,
      "inputs": [],
      "name": "getCurrentCommits",
      "outputs": [
        {
          "name": "",
          "type": "uint256"
        }
      ],
      "payable": false,
      "stateMutability": "view",
      "type": "function"
    },
    {
      "constant": false,
      "inputs": [
        {
          "name": "new_max",
          "type": "uint256"
        }
      ],
      "name": "setMaxPlayers",
      "outputs": [],
      "payable": false,
      "stateMutability": "nonpayable",
      "type": "function"
    },
    {
      "constant": true,
      "inputs": [
        {
          "name": "",
          "type": "address"
        }
      ],
      "name": "gameData",
      "outputs": [
        {
          "name": "",
          "type": "string"
        }
      ],
      "payable": false,
      "stateMutability": "view",
      "type": "function"
    },
    {
      "constant": true,
      "inputs": [],
      "name": "getCurrentReveals",
      "outputs": [
        {
          "name": "",
          "type": "uint256"
        }
      ],
      "payable": false,
      "stateMutability": "view",
      "type": "function"
    },
    {
      "constant": false,
      "inputs": [],
      "name": "unpause",
      "outputs": [],
      "payable": false,
      "stateMutability": "nonpayable",
      "type": "function"
    },
    {
      "constant": true,
      "inputs": [],
      "name": "rules",
      "outputs": [
        {
          "name": "MIN_GUESS",
          "type": "uint256"
        },
        {
          "name": "MAX_GUESS",
          "type": "uint256"
        }
      ],
      "payable": false,
      "stateMutability": "view",
      "type": "function"
    },
    {
      "constant": false,
      "inputs": [
        {
          "name": "guess",
          "type": "string"
        },
        {
          "name": "random",
          "type": "string"
        }
      ],
      "name": "reveal",
      "outputs": [],
      "payable": false,
      "stateMutability": "nonpayable",
      "type": "function"
    },
    {
      "constant": true,
      "inputs": [],
      "name": "getGameFee",
      "outputs": [
        {
          "name": "",
          "type": "uint256"
        }
      ],
      "payable": false,
      "stateMutability": "view",
      "type": "function"
    },
    {
      "constant": true,
      "inputs": [],
      "name": "paused",
      "outputs": [
        {
          "name": "",
          "type": "bool"
        }
      ],
      "payable": false,
      "stateMutability": "view",
      "type": "function"
    },
    {
      "constant": false,
      "inputs": [],
      "name": "payout",
      "outputs": [],
      "payable": false,
      "stateMutability": "nonpayable",
      "type": "function"
    },
    {
      "constant": false,
      "inputs": [
        {
          "name": "npt_addr",
          "type": "address"
        }
      ],
      "name": "setNPTAddress",
      "outputs": [],
      "payable": false,
      "stateMutability": "nonpayable",
      "type": "function"
    },
    {
      "constant": true,
      "inputs": [
        {
          "name": "i",
          "type": "uint256"
        }
      ],
      "name": "getLastWinners",
      "outputs": [
        {
          "name": "",
          "type": "address"
        }
      ],
      "payable": false,
      "stateMutability": "view",
      "type": "function"
    },
    {
      "constant": true,
      "inputs": [],
      "name": "getCommitStageStartBlock",
      "outputs": [
        {
          "name": "",
          "type": "uint256"
        }
      ],
      "payable": false,
      "stateMutability": "view",
      "type": "function"
    },
    {
      "constant": true,
      "inputs": [],
      "name": "average23",
      "outputs": [
        {
          "name": "",
          "type": "uint256"
        }
      ],
      "payable": false,
      "stateMutability": "view",
      "type": "function"
    },
    {
      "constant": false,
      "inputs": [],
      "name": "renounceOwnership",
      "outputs": [],
      "payable": false,
      "stateMutability": "nonpayable",
      "type": "function"
    },
    {
      "constant": false,
      "inputs": [],
      "name": "forceToPayoutState",
      "outputs": [],
      "payable": false,
      "stateMutability": "nonpayable",
      "type": "function"
    },
    {
      "constant": true,
      "inputs": [],
      "name": "getStakeSize",
      "outputs": [
        {
          "name": "",
          "type": "uint256"
        }
      ],
      "payable": false,
      "stateMutability": "view",
      "type": "function"
    },
    {
      "constant": true,
      "inputs": [
        {
          "name": "",
          "type": "address"
        }
      ],
      "name": "commits",
      "outputs": [
        {
          "name": "",
          "type": "bytes32"
        }
      ],
      "payable": false,
      "stateMutability": "view",
      "type": "function"
    },
    {
      "constant": false,
      "inputs": [],
      "name": "pause",
      "outputs": [],
      "payable": false,
      "stateMutability": "nonpayable",
      "type": "function"
    },
    {
      "constant": false,
      "inputs": [],
      "name": "forceToRevealState",
      "outputs": [],
      "payable": false,
      "stateMutability": "nonpayable",
      "type": "function"
    },
    {
      "constant": true,
      "inputs": [],
      "name": "getMaxPlayers",
      "outputs": [
        {
          "name": "",
          "type": "uint256"
        }
      ],
      "payable": false,
      "stateMutability": "view",
      "type": "function"
    },
    {
      "constant": true,
      "inputs": [],
      "name": "owner",
      "outputs": [
        {
          "name": "",
          "type": "address"
        }
      ],
      "payable": false,
      "stateMutability": "view",
      "type": "function"
    },
    {
      "constant": true,
      "inputs": [],
      "name": "getNumberOfWinners",
      "outputs": [
        {
          "name": "",
          "type": "uint256"
        }
      ],
      "payable": false,
      "stateMutability": "view",
      "type": "function"
    },
    {
      "constant": true,
      "inputs": [],
      "name": "getRevealStageStartBlock",
      "outputs": [
        {
          "name": "",
          "type": "uint256"
        }
      ],
      "payable": false,
      "stateMutability": "view",
      "type": "function"
    },
    {
      "constant": true,
      "inputs": [],
      "name": "getGameState",
      "outputs": [
        {
          "name": "",
          "type": "uint256"
        }
      ],
      "payable": false,
      "stateMutability": "view",
      "type": "function"
    },
    {
      "constant": false,
      "inputs": [],
      "name": "resetGame",
      "outputs": [],
      "payable": false,
      "stateMutability": "nonpayable",
      "type": "function"
    },
    {
      "constant": true,
      "inputs": [],
      "name": "birthBlock",
      "outputs": [
        {
          "name": "",
          "type": "uint256"
        }
      ],
      "payable": false,
      "stateMutability": "view",
      "type": "function"
    },
    {
      "constant": false,
      "inputs": [
        {
          "name": "hashedCommit",
          "type": "bytes32"
        }
      ],
      "name": "commit",
      "outputs": [],
      "payable": true,
      "stateMutability": "payable",
      "type": "function"
    },
    {
      "constant": false,
      "inputs": [
        {
          "name": "newOwner",
          "type": "address"
        }
      ],
      "name": "transferOwnership",
      "outputs": [],
      "payable": false,
      "stateMutability": "nonpayable",
      "type": "function"
    },
    {
      "constant": false,
      "inputs": [
        {
          "name": "new_stake",
          "type": "uint256"
        }
      ],
      "name": "setStakeSize",
      "outputs": [],
      "payable": false,
      "stateMutability": "nonpayable",
      "type": "function"
    },
    {
      "inputs": [
        {
          "name": "_feeAddress",
          "type": "address"
        },
        {
          "name": "_gameFeePercent",
          "type": "uint256"
        },
        {
          "name": "_stakeSize",
          "type": "uint256"
        },
        {
          "name": "_maxp",
          "type": "uint256"
        },
        {
          "name": "_gameStageLength",
          "type": "uint256"
        },
        {
          "name": "_nptAddress",
          "type": "address"
        }
      ],
      "payable": false,
      "stateMutability": "nonpayable",
      "type": "constructor"
    },
    {
      "anonymous": false,
      "inputs": [],
      "name": "CommitsSubmitted",
      "type": "event"
    },
    {
      "anonymous": false,
      "inputs": [],
      "name": "RevealsSubmitted",
      "type": "event"
    },
    {
      "anonymous": false,
      "inputs": [],
      "name": "NewRoundStarted",
      "type": "event"
    },
    {
      "anonymous": false,
      "inputs": [],
      "name": "Pause",
      "type": "event"
    },
    {
      "anonymous": false,
      "inputs": [],
      "name": "Unpause",
      "type": "event"
    },
    {
      "anonymous": false,
      "inputs": [
        {
          "indexed": true,
          "name": "previousOwner",
          "type": "address"
        }
      ],
      "name": "OwnershipRenounced",
      "type": "event"
    },
    {
      "anonymous": false,
      "inputs": [
        {
          "indexed": true,
          "name": "previousOwner",
          "type": "address"
        },
        {
          "indexed": true,
          "name": "newOwner",
          "type": "address"
        }
      ],
      "name": "OwnershipTransferred",
      "type": "event"
    }
  ],
  "bytecode": "0x608060405260008060146101000a81548160ff0219169083151502179055504360015560006018553480156200003457600080fd5b5060405160c080620026a5833981018060405281019080805190602001909291908051906020019092919080519060200190929190805190602001909291908051906020019092919080519060200190929190505050858585858585336000806101000a81548173ffffffffffffffffffffffffffffffffffffffff021916908373ffffffffffffffffffffffffffffffffffffffff160217905550336000806101000a81548173ffffffffffffffffffffffffffffffffffffffff021916908373ffffffffffffffffffffffffffffffffffffffff16021790555081600260030181905550846002600101819055508260026004018190555083600280018190555085600260000160006101000a81548173ffffffffffffffffffffffffffffffffffffffff021916908373ffffffffffffffffffffffffffffffffffffffff16021790555080600260050160006101000a81548173ffffffffffffffffffffffffffffffffffffffff021916908373ffffffffffffffffffffffffffffffffffffffff1602179055506000600860000160006101000a81548160ff02191690836002811115620001e257fe5b02179055506000600860020181905550600060086003018190555060026003015460001903600860040181905550600260030154600019036008600501819055506000600f60020181905550826040519080825280602002602001820160405280156200025e5781602001602082028038833980820191505090505b5060139080519060200190620002769291906200033f565b5082604051908082528060200260200182016040528015620002a75781602001602082028038833980820191505090505b5060159080519060200190620002bf9291906200033f565b5082604051908082528060200260200182016040528015620002f05781602001602082028038833980820191505090505b50600f60000190805190602001906200030b9291906200033f565b506000600f600101819055505050505050506000601660000181905550606460166001018190555050505050505062000414565b828054828255906000526020600020908101928215620003bb579160200282015b82811115620003ba5782518260006101000a81548173ffffffffffffffffffffffffffffffffffffffff021916908373ffffffffffffffffffffffffffffffffffffffff1602179055509160200191906001019062000360565b5b509050620003ca9190620003ce565b5090565b6200041191905b808211156200040d57600081816101000a81549073ffffffffffffffffffffffffffffffffffffffff021916905550600101620003d5565b5090565b90565b61228180620004246000396000f30060806040526004361061018b576000357c0100000000000000000000000000000000000000000000000000000000900463ffffffff1680630cfa6131146101905780630d7099ea146101bb578063288dee3b146101e657806329bb80a0146102135780633e62aa72146102cf5780633f4ba83a146102fa57806352f6747a146103115780635ba1b2c7146103435780635bba88f1146103f25780635c975abb1461041d57806363bd1d4a1461044c5780636588ba5b146104635780636764f6fb146104a65780636cb9a390146105135780636fdac3611461053e578063715018a614610569578063760704c11461058057806376cc4b7e146105975780637b43a8e6146105c25780638456cb591461062157806386b2b986146106385780638cbd9eb81461064f5780638da5cb5b1461067a5780638e33cffc146106d15780639ebefb68146106fc578063b7d0628b14610727578063bb47221914610752578063bba4b31e14610769578063f14fcbc814610794578063f2fde38b146107b8578063f3b9204e146107fb575b600080fd5b34801561019c57600080fd5b506101a5610828565b6040518082815260200191505060405180910390f35b3480156101c757600080fd5b506101d0610835565b6040518082815260200191505060405180910390f35b3480156101f257600080fd5b5061021160048036038101908080359060200190929190505050610842565b005b34801561021f57600080fd5b50610254600480360381019080803573ffffffffffffffffffffffffffffffffffffffff1690602001909291905050506108aa565b6040518080602001828103825283818151815260200191508051906020019080838360005b83811015610294578082015181840152602081019050610279565b50505050905090810190601f1680156102c15780820380516001836020036101000a031916815260200191505b509250505060405180910390f35b3480156102db57600080fd5b506102e461095a565b6040518082815260200191505060405180910390f35b34801561030657600080fd5b5061030f610967565b005b34801561031d57600080fd5b50610326610a25565b604051808381526020018281526020019250505060405180910390f35b34801561034f57600080fd5b506103f0600480360381019080803590602001908201803590602001908080601f0160208091040260200160405190810160405280939291908181526020018383808284378201915050505050509192919290803590602001908201803590602001908080601f0160208091040260200160405190810160405280939291908181526020018383808284378201915050505050509192919290505050610a37565b005b3480156103fe57600080fd5b50610407610cc7565b6040518082815260200191505060405180910390f35b34801561042957600080fd5b50610432610cd4565b604051808215151515815260200191505060405180910390f35b34801561045857600080fd5b50610461610ce7565b005b34801561046f57600080fd5b506104a4600480360381019080803573ffffffffffffffffffffffffffffffffffffffff169060200190929190505050610da6565b005b3480156104b257600080fd5b506104d160048036038101908080359060200190929190505050610e48565b604051808273ffffffffffffffffffffffffffffffffffffffff1673ffffffffffffffffffffffffffffffffffffffff16815260200191505060405180910390f35b34801561051f57600080fd5b50610528610ea1565b6040518082815260200191505060405180910390f35b34801561054a57600080fd5b50610553610eae565b6040518082815260200191505060405180910390f35b34801561057557600080fd5b5061057e610eb4565b005b34801561058c57600080fd5b50610595610fb6565b005b3480156105a357600080fd5b506105ac61106e565b6040518082815260200191505060405180910390f35b3480156105ce57600080fd5b50610603600480360381019080803573ffffffffffffffffffffffffffffffffffffffff16906020019092919050505061107a565b60405180826000191660001916815260200191505060405180910390f35b34801561062d57600080fd5b50610636611092565b005b34801561064457600080fd5b5061064d611152565b005b34801561065b57600080fd5b5061066461120a565b6040518082815260200191505060405180910390f35b34801561068657600080fd5b5061068f611217565b604051808273ffffffffffffffffffffffffffffffffffffffff1673ffffffffffffffffffffffffffffffffffffffff16815260200191505060405180910390f35b3480156106dd57600080fd5b506106e661123c565b6040518082815260200191505060405180910390f35b34801561070857600080fd5b50610711611249565b6040518082815260200191505060405180910390f35b34801561073357600080fd5b5061073c611256565b6040518082815260200191505060405180910390f35b34801561075e57600080fd5b50610767611263565b005b34801561077557600080fd5b5061077e61135b565b6040518082815260200191505060405180910390f35b6107b66004803603810190808035600019169060200190929190505050611361565b005b3480156107c457600080fd5b506107f9600480360381019080803573ffffffffffffffffffffffffffffffffffffffff169060200190929190505050611510565b005b34801561080757600080fd5b5061082660048036038101908080359060200190929190505050611665565b005b6000600f60020154905090565b6000600860020154905090565b6000809054906101000a900473ffffffffffffffffffffffffffffffffffffffff1673ffffffffffffffffffffffffffffffffffffffff163373ffffffffffffffffffffffffffffffffffffffff1614151561089d57600080fd5b8060026004018190555050565b60146020528060005260406000206000915090508054600181600116156101000203166002900480601f0160208091040260200160405190810160405280929190818152602001828054600181600116156101000203166002900480156109525780601f1061092757610100808354040283529160200191610952565b820191906000526020600020905b81548152906001019060200180831161093557829003601f168201915b505050505081565b6000600860030154905090565b6000809054906101000a900473ffffffffffffffffffffffffffffffffffffffff1673ffffffffffffffffffffffffffffffffffffffff163373ffffffffffffffffffffffffffffffffffffffff161415156109c257600080fd5b600060149054906101000a900460ff1615156109dd57600080fd5b60008060146101000a81548160ff0219169083151502179055507f7805862f689e2f13df9f062ff482ad3ad112aca9e0847911ed832e158c525b3360405160405180910390a1565b60168060000154908060010154905082565b600060149054906101000a900460ff16151515610a5357600080fd5b60016002811115610a6057fe5b600860000160009054906101000a900460ff166002811115610a7e57fe5b141515610a8a57600080fd5b610a93826116cc565b81816040518083805190602001908083835b602083101515610aca5780518252602082019150602081019050602083039250610aa5565b6001836020036101000a03801982511681845116808217855250505050505090500182805190602001908083835b602083101515610b1d5780518252602082019150602081019050602083039250610af8565b6001836020036101000a03801982511681845116808217855250505050505090500192505050604051809103902060001916601260003373ffffffffffffffffffffffffffffffffffffffff1673ffffffffffffffffffffffffffffffffffffffff1681526020019081526020016000205460001916141515610b9f57600080fd5b601260003373ffffffffffffffffffffffffffffffffffffffff1673ffffffffffffffffffffffffffffffffffffffff1681526020019081526020016000206000905581601460003373ffffffffffffffffffffffffffffffffffffffff1673ffffffffffffffffffffffffffffffffffffffff1681526020019081526020016000209080519060200190610c359291906121b0565b50336015600860030154815481101515610c4b57fe5b9060005260206000200160006101000a81548173ffffffffffffffffffffffffffffffffffffffff021916908373ffffffffffffffffffffffffffffffffffffffff1602179055506008600301600081548092919060010191905055506002600401546008600301541415610cc357610cc2611702565b5b5050565b6000600260010154905090565b600060149054906101000a900460ff1681565b6000809054906101000a900473ffffffffffffffffffffffffffffffffffffffff1673ffffffffffffffffffffffffffffffffffffffff163373ffffffffffffffffffffffffffffffffffffffff16141515610d4257600080fd5b600060149054906101000a900460ff16151515610d5e57600080fd5b600280811115610d6a57fe5b600860000160009054906101000a900460ff166002811115610d8857fe5b141515610d9457600080fd5b610d9c611762565b610da4611cac565b565b6000809054906101000a900473ffffffffffffffffffffffffffffffffffffffff1673ffffffffffffffffffffffffffffffffffffffff163373ffffffffffffffffffffffffffffffffffffffff16141515610e0157600080fd5b80600260050160006101000a81548173ffffffffffffffffffffffffffffffffffffffff021916908373ffffffffffffffffffffffffffffffffffffffff16021790555050565b6000600f6001015482101515610e5d57600080fd5b600f60000182815481101515610e6f57fe5b9060005260206000200160009054906101000a900473ffffffffffffffffffffffffffffffffffffffff169050919050565b6000600860040154905090565b60185481565b6000809054906101000a900473ffffffffffffffffffffffffffffffffffffffff1673ffffffffffffffffffffffffffffffffffffffff163373ffffffffffffffffffffffffffffffffffffffff16141515610f0f57600080fd5b6000809054906101000a900473ffffffffffffffffffffffffffffffffffffffff1673ffffffffffffffffffffffffffffffffffffffff167ff8df31144d9c2f0f6b59d69b8b98abd5459d07f2742c4df920b25aae33c6482060405160405180910390a260008060006101000a81548173ffffffffffffffffffffffffffffffffffffffff021916908373ffffffffffffffffffffffffffffffffffffffff160217905550565b6000809054906101000a900473ffffffffffffffffffffffffffffffffffffffff1673ffffffffffffffffffffffffffffffffffffffff163373ffffffffffffffffffffffffffffffffffffffff1614151561101157600080fd5b600060149054906101000a900460ff1615151561102d57600080fd5b6001600281111561103a57fe5b600860000160009054906101000a900460ff16600281111561105857fe5b14151561106457600080fd5b61106c611702565b565b60006002800154905090565b60126020528060005260406000206000915090505481565b6000809054906101000a900473ffffffffffffffffffffffffffffffffffffffff1673ffffffffffffffffffffffffffffffffffffffff163373ffffffffffffffffffffffffffffffffffffffff161415156110ed57600080fd5b600060149054906101000a900460ff1615151561110957600080fd5b6001600060146101000a81548160ff0219169083151502179055507f6985a02210a168e66602d3235cb6db0e70f92b3ba4d376a33c0f3d9434bff62560405160405180910390a1565b6000809054906101000a900473ffffffffffffffffffffffffffffffffffffffff1673ffffffffffffffffffffffffffffffffffffffff163373ffffffffffffffffffffffffffffffffffffffff161415156111ad57600080fd5b600060149054906101000a900460ff161515156111c957600080fd5b600060028111156111d657fe5b600860000160009054906101000a900460ff1660028111156111f457fe5b14151561120057600080fd5b611208611de5565b565b6000600260040154905090565b6000809054906101000a900473ffffffffffffffffffffffffffffffffffffffff1681565b6000600f60010154905090565b6000600860050154905090565b6000600860010154905090565b60008060009054906101000a900473ffffffffffffffffffffffffffffffffffffffff1673ffffffffffffffffffffffffffffffffffffffff163373ffffffffffffffffffffffffffffffffffffffff161415156112c057600080fd5b600060149054906101000a900460ff161515156112dc57600080fd5b6112e4611cac565b6000600f60020181905550600090505b600f6001015481101561134d57600f6000018181548110151561131357fe5b9060005260206000200160006101000a81549073ffffffffffffffffffffffffffffffffffffffff021916905580806001019150506112f4565b6000600f6001018190555050565b60015481565b600060149054906101000a900460ff1615151561137d57600080fd5b6000600281111561138a57fe5b600860000160009054906101000a900460ff1660028111156113a857fe5b1415156113b457600080fd5b6002800154341415156113c657600080fd5b600060010260001916601260003373ffffffffffffffffffffffffffffffffffffffff1673ffffffffffffffffffffffffffffffffffffffff168152602001908152602001600020546000191614151561141f57600080fd5b80601260003373ffffffffffffffffffffffffffffffffffffffff1673ffffffffffffffffffffffffffffffffffffffff168152602001908152602001600020816000191690555033601360086002015481548110151561147c57fe5b9060005260206000200160006101000a81548173ffffffffffffffffffffffffffffffffffffffff021916908373ffffffffffffffffffffffffffffffffffffffff160217905550600860020160008154809291906001019190505550600160086002015414156114f257436008600401819055505b600260040154600860020154141561150d5761150c611de5565b5b50565b6000809054906101000a900473ffffffffffffffffffffffffffffffffffffffff1673ffffffffffffffffffffffffffffffffffffffff163373ffffffffffffffffffffffffffffffffffffffff1614151561156b57600080fd5b600073ffffffffffffffffffffffffffffffffffffffff168173ffffffffffffffffffffffffffffffffffffffff16141515156115a757600080fd5b8073ffffffffffffffffffffffffffffffffffffffff166000809054906101000a900473ffffffffffffffffffffffffffffffffffffffff1673ffffffffffffffffffffffffffffffffffffffff167f8be0079c531659141344cd1fd0a4f28419497f9722a3daafe3b4186f6b6457e060405160405180910390a3806000806101000a81548173ffffffffffffffffffffffffffffffffffffffff021916908373ffffffffffffffffffffffffffffffffffffffff16021790555050565b6000809054906101000a900473ffffffffffffffffffffffffffffffffffffffff1673ffffffffffffffffffffffffffffffffffffffff163373ffffffffffffffffffffffffffffffffffffffff161415156116c057600080fd5b80600280018190555050565b60006116d782611e4f565b905060166000015481101580156116f357506016600101548111155b15156116fe57600080fd5b5050565b6002600860000160006101000a81548160ff0219169083600281111561172457fe5b021790555060026008600101819055507f249eb5abee408afd11bfd7a0449ece5a765def88489dd844882a500f87280a2460405160405180910390a1565b6000806000806000606060008060008060008060009b5060009a505b6008600301548b10156118b8576118a46014600060158e8154811015156117a157fe5b9060005260206000200160009054906101000a900473ffffffffffffffffffffffffffffffffffffffff1673ffffffffffffffffffffffffffffffffffffffff1673ffffffffffffffffffffffffffffffffffffffff1681526020019081526020016000208054600181600116156101000203166002900480601f01602080910402602001604051908101604052809291908181526020018280546001816001161561010002031660029004801561189a5780601f1061186f5761010080835404028352916020019161189a565b820191906000526020600020905b81548152906001019060200180831161187d57829003601f168201915b5050505050611e4f565b9950898c019b508a806001019b505061177e565b6127108c029b506118ce8c600860030154612059565b98506118e56118de8a600261206f565b6003612059565b9750612710888115156118f457fe5b049750876018819055506002600401546040519080825280602002602001820160405280156119325781602001602082028038833980820191505090505b50965060009550600019945060009a505b6008600301548b1015611bc657611a696014600060158e81548110151561196657fe5b9060005260206000200160009054906101000a900473ffffffffffffffffffffffffffffffffffffffff1673ffffffffffffffffffffffffffffffffffffffff1673ffffffffffffffffffffffffffffffffffffffff1681526020019081526020016000208054600181600116156101000203166002900480601f016020809104026020016040519081016040528092919081815260200182805460018160011615610100020316600290048015611a5f5780601f10611a3457610100808354040283529160200191611a5f565b820191906000526020600020905b815481529060010190602001808311611a4257829003601f168201915b5050505050611e4f565b925082881115611a7d578288039350611a83565b87830393505b84841015611b23576000955060158b815481101515611a9e57fe5b9060005260206000200160009054906101000a900473ffffffffffffffffffffffffffffffffffffffff168787815181101515611ad757fe5b9060200190602002019073ffffffffffffffffffffffffffffffffffffffff16908173ffffffffffffffffffffffffffffffffffffffff16815250508580600101965050839450611bb9565b84841415611bb85760158b815481101515611b3a57fe5b9060005260206000200160009054906101000a900473ffffffffffffffffffffffffffffffffffffffff168787815181101515611b7357fe5b9060200190602002019073ffffffffffffffffffffffffffffffffffffffff16908173ffffffffffffffffffffffffffffffffffffffff168152505085806001019650505b5b8a806001019b5050611943565b600086111515611bd557600080fd5b60026001015460643073ffffffffffffffffffffffffffffffffffffffff1631811515611bfe57fe5b04029150600260000160009054906101000a900473ffffffffffffffffffffffffffffffffffffffff1673ffffffffffffffffffffffffffffffffffffffff166108fc839081150290604051600060405180830381858888f19350505050158015611c6d573d6000803e3d6000fd5b50853073ffffffffffffffffffffffffffffffffffffffff1631811515611c9057fe5b049050611c9e8787836120a7565b505050505050505050505050565b600080600860000160006101000a81548160ff02191690836002811115611ccf57fe5b02179055506000600860010181905550600090505b600860020154811015611d7a5760126000601383815481101515611d0457fe5b9060005260206000200160009054906101000a900473ffffffffffffffffffffffffffffffffffffffff1673ffffffffffffffffffffffffffffffffffffffff1673ffffffffffffffffffffffffffffffffffffffff168152602001908152602001600020600090558080600101915050611ce4565b6000600860020181905550600060086003018190555060026003015460001903600860040181905550600260030154600019036008600501819055507fc80d42c5999c8ad689a434b47a3eecdc54fa3b27a31b49cb02b8c5075929fecc60405160405180910390a150565b6001600860000160006101000a81548160ff02191690836002811115611e0757fe5b02179055506001600860010181905550436008600501819055507f69c81b49bf12351dbabf91faefefa2b2ee324d944cd6a8b3b8416ade0232666460405160405180910390a1565b6000606060008084925060009150600090505b825181101561204e5760307f0100000000000000000000000000000000000000000000000000000000000000028382815181101515611e9d57fe5b9060200101517f010000000000000000000000000000000000000000000000000000000000000090047f0100000000000000000000000000000000000000000000000000000000000000027effffffffffffffffffffffffffffffffffffffffffffffffffffffffffffff191610158015611fb5575060397f0100000000000000000000000000000000000000000000000000000000000000028382815181101515611f4557fe5b9060200101517f010000000000000000000000000000000000000000000000000000000000000090047f0100000000000000000000000000000000000000000000000000000000000000027effffffffffffffffffffffffffffffffffffffffffffffffffffffffffffff191611155b156120415760308382815181101515611fca57fe5b9060200101517f010000000000000000000000000000000000000000000000000000000000000090047f0100000000000000000000000000000000000000000000000000000000000000027f0100000000000000000000000000000000000000000000000000000000000000900403600a83020191505b8080600101915050611e62565b819350505050919050565b6000818381151561206657fe5b04905092915050565b60008083141561208257600090506120a1565b818302905081838281151561209357fe5b0414151561209d57fe5b8090505b92915050565b600080905082600f60010181905550600090505b828110156121a05783818151811015156120d157fe5b9060200190602002015173ffffffffffffffffffffffffffffffffffffffff166108fc839081150290604051600060405180830381858888f19350505050158015612120573d6000803e3d6000fd5b50838181518110151561212f57fe5b90602001906020020151600f6000018281548110151561214b57fe5b9060005260206000200160006101000a81548173ffffffffffffffffffffffffffffffffffffffff021916908373ffffffffffffffffffffffffffffffffffffffff16021790555080806001019150506120bb565b81600f6002018190555050505050565b828054600181600116156101000203166002900490600052602060002090601f016020900481019282601f106121f157805160ff191683800117855561221f565b8280016001018555821561221f579182015b8281111561221e578251825591602001919060010190612203565b5b50905061222c9190612230565b5090565b61225291905b8082111561224e576000816000905550600101612236565b5090565b905600a165627a7a723058200adb25b624165f3c66f2f595bee297b4c8a766064d14bca7937f0deea83484500029",
  "source": "pragma solidity ^0.4.23;\n\nimport \"./Game.sol\";\n\ncontract TwoThirdsAverage is Game {\n\n\n    struct Rules {\n        uint MIN_GUESS;\n        uint MAX_GUESS;\n    }\n\n    Rules public rules;\n\n    //DEBUG\n    uint public average23 = 0;\n\n    constructor(\n        address _feeAddress,\n        uint _gameFeePercent,\n        uint _stakeSize,\n        uint _maxp, \n        uint _gameStageLength,\n        address _nptAddress) public Game(_feeAddress, _gameFeePercent, _stakeSize, _maxp, _gameStageLength, _nptAddress) {\n        rules.MIN_GUESS = 0;\n        rules.MAX_GUESS = 100;\n    }\n\n    function checkGuess(string guess) private {\n        uint guess_num = stringToUint(guess);\n        require(guess_num >= rules.MIN_GUESS && guess_num <= rules.MAX_GUESS);\n    }\n\n    function findWinners() private {\n\n        //emit DebugWinner(1, gameDataKeys.length);\n        \n        // Calculate the 2/3 average\n        uint guess_sum = 0;\n        for(uint i = 0; i < state.currNumberReveals; i++){\n            uint tmp = stringToUint(gameData[gameDataKeys[i]]);\n            guess_sum += tmp;\n        }\n\n        guess_sum = guess_sum * 10000;\n        uint average = div(guess_sum, state.currNumberReveals);\n        uint twothirdsavg = div(mul(average, 2), 3);\n        twothirdsavg = twothirdsavg / 10000;\n\n        //DEBUG\n        average23 = twothirdsavg;\n\n        address[] memory winners = new address[](config.MAX_PLAYERS);\n        uint winIndex = 0;\n\n        // Find the guessers who are the closest to the 2/3 average\n        uint min_diff = ~uint256(0);\n        uint cur_diff;\n        for(i = 0; i < state.currNumberReveals; i++) {\n            \n            uint cur_guess = stringToUint(gameData[gameDataKeys[i]]);\n\n            // Find the difference between the guess and the average\n            if(twothirdsavg > cur_guess){\n                cur_diff = twothirdsavg - cur_guess;\n            }\n            else{\n                cur_diff = cur_guess - twothirdsavg;\n            }\n            \n            // If the difference is less than the smallest difference,\n            // we delete all the winners and add the new candidate\n            if(cur_diff < min_diff) {\n                \n                // NOT A BUG!\n                //delete winners; // WTF you might ask? There is no necessity to delete elements.\n                winIndex = 0;\n                winners[winIndex] = gameDataKeys[i];\n                winIndex++;\n\n                min_diff = cur_diff;\n            // Else, if the difference are the same, we add the candidate to the \n            // list of winners\n            } else if(cur_diff == min_diff){\n                winners[winIndex] = gameDataKeys[i];\n                winIndex++;\n            }\n        }\n\n        //emit DebugWinner(2, gameDataKeys.length);\n\n        // winrIndex here has the number of winner in our array\n        require(winIndex > 0);\n\n        // Lets pay ourselves some money\n        uint gamefee = (address(this).balance/100) * config.GAME_FEE_PERCENT;\n        config.FEE_ADDRESS.transfer(gamefee);\n\n        // Split the rest equally among winners\n        uint prize = address(this).balance/winIndex;\n        performPayout(winners, winIndex, prize);\n        \n    }\n\n}\n\n\n",
  "sourcePath": "/Users/freeslugs/Documents/Code/nashhash/contracts/TwoThirdsAverage.sol",
  "compiler": {
    "name": "solc",
    "version": "0.4.23+commit.124ca40d.Emscripten.clang"
  },
  "schemaVersion": "2.0.0",
  "updatedAt": "2018-06-14T12:48:55.628Z"
}